:020000040800F2
:100000009033002031020008C517000825100008B1
:10001000C1170008DB070008532300080000000098
:10002000000000000000000000000000990100082E
:100030008909000800000000DD010008C91C000853
:100040004B0200084B0200084B0200084B0200085C
:100050004B0200084B0200084B020008E5090008AB
:100060004B0200084B0200084B0200084B0200083C
:100070004B0200084B0200084B0200084B0200082C
:100080004B0200084B0200084B0200084B0200081C
:100090004B0200084B0200084B0200084B0200080C
:1000A0004B0200084B0200084B0200084B020008FC
:1000B0004B0200084B020008511E00084B020008CA
:1000C0004B0200084B0200084B0200084B020008DC
:1000D0004B020008692100084B0200084B0200088F
:1000E0008D0900084B0200084B02000800F002F8DE
:1000F00000F042F80AA090E8000C82448344AAF180
:100100000107DA4501D100F037F8AFF2090EBAE87D
:100110000F0013F0010F18BFFB1A43F0010318473B
:100120006C6A00008C6A0000103A24BF78C878C15D
:10013000FAD8520724BF30C830C144BF04680C60ED
:10014000704700000023002400250026103A28BF35
:1001500078C1FBD8520728BF30C148BF0B60704739
:10016000642900F0F180732900F0FE8100207047BF
:100170001FB51FBD10B510BD00F08BFA1146FFF77B
:10018000F7FF02F0ADFC00F0A9FA03B4FFF7F2FFAD
:1001900003BC02F0E0F80000224B19680868B0E8E0
:1001A000F00F80F30988BFF36F8F4FF0000080F3EA
:1001B00011884EF00D0E70470000000006480068E0
:1001C000006880F3088862B661B6BFF34F8FBFF353
:1001D0006F8F00DF00BF00BF08ED00E0EFF3098084
:1001E000BFF36F8F0F4B1A6820E9F00F106008B54E
:1001F0004FF0300080F31188BFF34F8FBFF36F8F44
:1002000004F026FA4FF0000080F31188BDE80840A2
:1002100019680868B0E8F00F80F30988BFF36F8FA2
:10022000704700BF88000020EFF305807047000092
:100230000948804709480047FEE7FEE7FEE7FEE77A
:10024000FEE7FEE7FEE7FEE7FEE7FEE704480549B6
:10025000054A064B70470000D91C0008ED00000855
:10026000902D002090330020902F0020902F002010
:10027000704700000FB4044910B503AA029800F0BB
:1002800077F910BC5DF814FB680000202DE9F041FF
:100290000E460446002020622046E168884730B3BD
:1002A000252805D0D4E901219047206A401CF2E7B7
:1002B000E168204600278847050018D0A5F14100D5
:1002C000192802D820354FF40067324629462046C7
:1002D0002760FFF745FF40B1012804D0F61D26F046
:1002E00007060836D8E7361DD6E72846DAE7206A3B
:1002F000BDE8F08170B50C460546012A05D0287886
:10030000800600D5EA69002302E0012305E05B1CBA
:10031000934202D2E05C0028F9D1A869E618C01A1D
:10032000A861286A184428622846AFF3008004E0D8
:10033000D5E9012114F8010B9047B442F8D32846BF
:10034000AFF3008070BD00002DE9F04106460024A7
:1003500010687529314616A510D0AFF3008000282B
:1003600002DA404213A507E031688A0701D512A5D9
:1003700002E0490704D511A5012401E0AFF3008094
:1003800000210A2206F1240709E0B0FBF2FCB0FBD1
:10039000F2F302FB1C00303078541846491C002848
:1003A000F3D123462A463046BDE8F04100F059B863
:1003B000000000002D0000002B00000020000000C5
:1003C000032A40F2308010F0030C00F0158011F881
:1003D000013BBCF1020F624498BF11F801CB00F859
:1003E000013B38BF11F8013BA2F1040298BF00F8AD
:1003F00001CB38BF00F8013B11F0030300F0CA80C5
:10040000083AC0F0088051F8043B083A51F804CB90
:10041000A0E80810F5E7121D5CBF51F8043B40F856
:10042000043BAFF30080D20724BF11F8013B11F861
:1004300001CB48BF11F8012B24BF00F8013B00F8A5
:1004400001CB48BF00F8012B704702F0FF0343EADD
:10045000032242EA024200F0D1B870477047704769
:1004600070472DE9F0470D4699469246044600F143
:1004700024080168880604D5E06921F01001216094
:1004800000E00120A84201DD471B00E00027A16930
:100490007A1902EB0900081AA0612078C00602D47C
:1004A0002046AFF30080002608E0D4E901211AF8C5
:1004B00006009047206A401C761C20624E45F4DB03
:1004C0002078C0060AD52046AFF3008006E0D4E9C4
:1004D000012130209047206A401C2062381EA7F17D
:1004E0000107F4DC07E0D4E9012118F80500904782
:1004F000206A401C2062281EA5F10105F3DC20467D
:10050000AFF300802078000602D50220BDE8F08716
:100510000120FBE701694A1C02610878704700B5B9
:100520008FB0CDE901310021059105497944CDE92C
:10053000031011466846FFF7A9FE0FB000BD00008A
:10054000E5FFFFFF10B5436913B1AFF3008001E091
:10055000FFF7D0FE012010BD127800F124010A70CF
:1005600000224A700122EDE711684FF0FF32E9E7FF
:10057000074B70B50D467B44FFF7D1FF0446284674
:1005800000F05CF810B14FF0FF3070BD204670BD38
:100590008B21000010B5203AC0F00B80B1E8185054
:1005A000203AA0E81850B1E81850A0E81850BFF45D
:1005B000F5AF5FEA027C24BFB1E81850A0E81850FC
:1005C00044BF18C918C0BDE810405FEA827C24BF50
:1005D00051F8043B40F8043B08BF7047D20728BFDE
:1005E00031F8023B48BF11F8012B28BF20F8023B2D
:1005F00048BF00F8012B70474FF000020429C0F0FB
:10060000128010F0030C00F01F80CCF1040CBCF140
:10061000020F18BF00F8012BA8BF20F8022BA1EB96
:100620000C0100F011B85FEAC17C24BF00F8012B77
:1006300000F8012B48BF00F8012B7047007B00F049
:10064000800070474FF0000200B51346944696466E
:10065000203922BFA0E80C50A0E80C50B1F12001D5
:10066000BFF4F7AF090728BFA0E80C5048BF0CC083
:100670005DF804EB890028BF40F8042B08BF7047E1
:1006800048BF20F8022B11F0804F18BF00F8012B53
:100690007047754600F02CF8AE4605006946534693
:1006A00020F00700854618B020B5FFF7CFFDBDE864
:1006B00020404FF000064FF000074FF000084FF0C9
:1006C000000B21F00701AC46ACE8C009ACE8C0095A
:1006D000ACE8C009ACE8C0098D46704710B50446C7
:1006E000AFF300802046BDE81040FFF74EBD00008C
:1006F000004870472C2D002070B505460C46164664
:100700001E48844204D10121042001F0CDF82EE0DE
:100710001B48844204D10121082001F0C5F826E0DD
:100720001848844204D10121102001F0BDF81EE0D8
:100730001548844204D10121202001F0B5F816E0CB
:100740001248844204D10121402001F0ADF80EE0AE
:100750000F48844204D10121802001F0A5F806E071
:100760000C48844203D10121801501F09DF82C60D2
:10077000AE80284600F010F870BD0000000801406F
:10078000000C01400010014000140140001801401D
:10079000001C01400020014038B50446A088ADF897
:1007A000000010208DF8030003208DF80200694638
:1007B000206800F00BFA204600F001F838BD10B5B3
:1007C0000446A188206800F095FA10BD10B50446D3
:1007D000A188206800F090FA10BD00BFFEE738B590
:1007E0000446204601F0DAFD04208DF80300A088BD
:1007F000ADF8000003208DF802006946206800F083
:10080000E5F938BD38B50446204601F0C7FD102093
:100810008DF80300A088ADF8000003208DF80200D9
:100820006946206800F0D2F9A188206800F062FAD9
:10083000142001F08DFEA188206800F05DFA1E20D2
:1008400001F0A6FEA188206800F054FA38BD2DE919
:10085000F04107460025002400262AE004E001209C
:1008600001F096FE601CC4B2384603F0E9F808B9FE
:10087000642CF4DB00241E2001F08AFEA0463846DA
:1008800003F0DEF8012800D1804604E0012001F0E9
:100890007FFE601CC4B2384603F0D2F8012801D1B3
:1008A000642CF3DB00246806050E45EA0805701C7D
:1008B000C6B2082ED2DB2846BDE8F0812DE9F0470C
:1008C0000746884691469A46089E0025C6F800903D
:1008D000A6F804A03046FFF795FF3046FFF77FFFEC
:1008E000142001F055FE304603F0AAF8002828D164
:1008F00004E0012001F04CFE681CC5B2304603F054
:100900009FF808B9642DF4DB002504E0012001F014
:100910003FFE681CC5B2304603F092F8012801D1B1
:10092000642DF3DB0025002406E03046FFF78FFF3F
:1009300013490855601CC4B2052CF6DB322001F0C7
:1009400027FE0F4800780E49497808440C498978F9
:1009500008440B49C97808440A49086008480079E6
:100960000978884209D10648007888F800000448D0
:10097000807838700120BDE8F0870020FBE7000098
:10098000540000205C0000207047000008B50020E3
:1009900000904FF4805000F09BF8D8B10A2001F08D
:1009A0001BFE4FF480510C4800F09BF920B96946BA
:1009B0000A48006804F0EAF94FF4805000F082F829
:1009C000009838B14FF0805005490860BFF34F8F51
:1009D000BFF36F8F08BD0000000C01401400002021
:1009E00004ED00E008B500200090022000F070F84F
:1009F000C8B10A2001F0F0FD02210B4800F071F9A6
:100A000020B969460948006804F0C0F9022000F0E6
:100A100059F8009838B14FF0805005490860BFF38D
:100A20004F8FBFF36F8F08BD000C014018000020EE
:100A300004ED00E00EB50121084600F035FF01216C
:100A4000084600F0A3F80220019000208DF808006D
:100A50000C208DF8090001208DF80A0001A800F093
:100A60004BF80C21012000F091F84FF480500190D8
:100A700000208DF808000C208DF8090001208DF869
:100A80000A0001A800F038F828208DF800000620A0
:100A90008DF8010000208DF8020001208DF8030080
:100AA000684600F091FE07208DF800008DF80100E7
:100AB00000208DF8020001208DF80300684600F048
:100AC00083FE0EBD01490860704700001404014018
:100AD000014600200022074B1B6803EA0102054B78
:100AE00014331B680B4013B10AB1012000E0002051
:100AF0007047000000040140002123498279002A48
:100B00003AD00A46126803689A430B461A600A1DD7
:100B1000126803689A430B1D1A60027911440A682F
:100B200003681A430A60184A0832126803689A4335
:100B3000154B08331A601A1D126803689A43124B4A
:100B40000C331A604279102A0ED11A1F12680368FA
:100B50001A430D4B08331A601A1D126803681A43B2
:100B6000094B0C331A600DE00749427911440A68B9
:100B700003681A430A6005E0027911440A680368B1
:100B80009A430A60704700000004014030B500221B
:100B90008B071C0F0F2303FA04F20B4B8C1053F836
:100BA00024309343084C8D1044F8253023468C1094
:100BB00053F824308C07240F00FA04F42343024C2A
:100BC0008D1044F8253030BD080001402DE9F0417A
:100BD000024600250026002000230024002791F86B
:100BE00003C00CF00F0591F803C00CF0100CBCF121
:100BF000000F03D091F802C04CEA050591F800C03F
:100C0000BCF1000F31D0146800202BE04FF0010C34
:100C10000CFA00F3B1F800C00CEA03069E4220D1A2
:100C200083004FF00F0C0CFA03F7BC4305FA03FCEA
:100C30004CEA040491F803C0BCF1280F06D14FF030
:100C4000010C0CFA00FCC2F814C00AE091F803C0D1
:100C5000BCF1480F05D14FF0010C0CFA00FCC2F8B2
:100C600010C0401C0828D1D31460B1F800C0BCF1FA
:100C7000FF0F34DD546800202EE000F1080C4FF027
:100C8000010808FA0CF3B1F800C00CEA03069E4212
:100C900021D183004FF00F0C0CFA03F7BC4305FA87
:100CA00003FC4CEA040491F803C0BCF1280F05D101
:100CB00000F1080C08FA0CF8C2F8148091F803C08F
:100CC000BCF1480F07D100F1080C4FF0010808FAF9
:100CD0000CF8C2F81080401C0828CED35460BDE840
:100CE000F0810246002093680B400BB1012000E028
:100CF0000020704741617047016170472DE9FC5F3A
:100D00000546884691469A46DDF830B000953E206B
:100D1000019000245FE004EB0410374911F8100043
:100D20009BF80010884253D104EB0410324901EBC8
:100D3000400040789BF80110884249D108F10F002B
:100D400083B205F10F0082B24146284600F038FB1D
:100D500000263BE0002734E00D9890B904EB041026
:100D6000254901EB4000801C805D8021394108400D
:100D700018B1484600F008FD21E0504600F004FD9F
:100D80001DE01E48A0F8009004EB04101A4901EB86
:100D90004000801C805D80213941084018B14146E7
:100DA000284600F071F9681C85B20098281A1028AE
:100DB00005D1009D08F101001FFA80F803E0781CBE
:100DC000C7B2082FC8DB00BF701CC6B2202EC1DB23
:100DD00000BF601C84B2019884429CDB08484088B4
:100DE000401E83B206480088401E82B20021084699
:100DF00000F0E6FABDE8FC9F405F000860000020BC
:100E0000080100202DE9FC5F0546884691469A4678
:100E1000DDF830B0009507200190002467E004EB76
:100E2000840000EB44103A4911F810009BF80010C0
:100E3000884259D104EB840000EB4410344901EBA3
:100E4000400040789BF8011088424DD108F117000E
:100E500083B205F1170082B24146284600F0B0FA8D
:100E600000263FE0002738E00D98A0B904EB84008D
:100E700000EB4410264901EB4000801C805D80217E
:100E80003941084018B1484600F07EFC23E0504646
:100E900000F07AFC1FE01F48A0F8009004EB8400EB
:100EA00000EB44101A4901EB4000801C805D80215A
:100EB0003941084018B14146284600F0E5F8681C61
:100EC00085B20098281A182805D1009D08F1010064
:100ED0001FFA80F803E0781CC7B2082FC4DB00BFFC
:100EE000701CC6B2482EBDDB00BF601C84B20198E6
:100EF000844294DB08484088401E83B2064800883C
:100F0000401E82B20021084600F05AFABDE8FC9F5C
:100F10007C67000860000020080100202DE9FC5FCC
:100F20000546884691469A46DDF830B00095042083
:100F3000019000245FE004EB8410374911F81000A1
:100F40009BF80010884253D104EB8410324901EB26
:100F5000400040789BF80110884249D108F11F00F9
:100F600083B205F11F0082B24146284600F028FAFC
:100F700000263BE0002734E00D9890B904EB841084
:100F8000254901EB4000801C805D802139410840EB
:100F900018B1484600F0F8FB21E0504600F0F4FBA1
:100FA0001DE01E48A0F8009004EB84101A4901EBE4
:100FB0004000801C805D80213941084018B14146C5
:100FC000284600F061F8681C85B20098281A20288D
:100FD00005D1009D08F101001FFA80F803E0781C9C
:100FE000C7B2082FC8DB00BF701CC6B2802EC1DBA1
:100FF00000BF601C84B2019884429CDB0848408892
:10100000401E83B206480088401E82B20021084676
:1010100000F0D6F9BDE8FC9F82690008600000205E
:101020000801002000BFFEE770B50646144840885E
:10103000401E83B212480088401E82B2002108463A
:1010400000F0BEF94FF400700E4908608020091FBF
:10105000086000240AE0002503E0304600F094FB1D
:101060006D1C07480088A842F7D8641C04484088D3
:10107000A042F0D84FF400700249091F086070BD0B
:1010800008010020140C014070B504460D462946A5
:10109000204600F08BF90248008800F075FB70BD17
:1010A000600000202DE9F05F04460D4616461F46FD
:1010B000301B401C1FFA80FA781B401C1FFA80FB73
:1010C0003B4632462946204600F07AF94FF00008A8
:1010D0000FE04FF0000906E00A9800F055FB09F117
:1010E00001001FFA80F9D145F6DB08F101001FFA73
:1010F00080F8D845EDDB07484088401E83B205489C
:101100000088401E82B20021084600F059F9BDE86F
:10111000F09F00000801002008B50121082000F020
:10112000C3FB4FF47070ADF8000003208DF802008F
:1011300010208DF8030069460148FFF747FD08BD00
:10114000000C014010B500F029FCFFF7E5FF00F0AE
:1011500019F9112000F062FA782001F0F9F9B120B4
:1011600000F05CFA012000F041FA2C2000F03EFA79
:101170002D2000F03BFAB22000F050FA012000F0E0
:1011800035FA2C2000F032FA2D2000F02FFAB3208F
:1011900000F044FA012000F029FA2C2000F026FA91
:1011A0002D2000F023FA012000F020FA2C2000F07E
:1011B0001DFA2D2000F01AFAB42000F02FFA0720B3
:1011C00000F014FAC02000F029FAA22000F00EFA74
:1011D000022000F00BFA842000F008FAC12000F091
:1011E0001DFAC52000F002FAC22000F017FA0A200A
:1011F00000F0FCF9002000F0F9F9C32000F00EFA2D
:101200008A2000F0F3F92A2000F0F0F9C42000F061
:1012100005FA8A2000F0EAF9EE2000F0E7F9C5208F
:1012200000F0FCF90E2000F0E1F9362000F0F6F9AC
:10123000C02000F0DBF9E02000F0F0F90F2000F012
:10124000D5F91A2000F0D2F90F2000F0CFF91820BC
:1012500000F0CCF92F2000F0C9F9282000F0C6F9E1
:10126000202000F0C3F9222000F0C0F91F2000F078
:10127000BDF91B2000F0BAF9232000F0B7F93720A0
:1012800000F0B4F9002000F0B1F9072000F0AEF949
:10129000022000F0ABF9102000F0A8F9E12000F0E6
:1012A000BDF90F2000F0A2F91B2000F09FF90F20DC
:1012B00000F09CF9172000F099F9332000F096F91E
:1012C0002C2000F093F9292000F090F92E2000F056
:1012D0008DF9302000F08AF9302000F087F93920AC
:1012E00000F084F93F2000F081F9002000F07EF941
:1012F000072000F07BF9032000F078F9102000F0BF
:1013000075F92A2000F08AF9002000F06FF900201A
:1013100000F06CF9002000F069F97F2000F066F918
:101320002B2000F07BF9002000F060F9002000F095
:101330005DF9002000F05AF99F2000F057F9F020E5
:1013400000F06CF9012000F051F9F62000F066F988
:10135000002000F04BF93A2000F060F9052000F081
:1013600045F9292000F05AF9002000F07FF901200A
:10137000034908604FF6FF70FFF756FE10BD0000EE
:101380009881214210B54FF48070074908606420AD
:1013900001F0DEF84FF480700349091F0860322025
:1013A00001F0D6F810BD0000140C014070B50446E1
:1013B0000D462B4622462946204600F001F870BD16
:1013C0002DE9F04104460D4616461F461149887A1C
:1013D00000F024F9002000F009F9E0B200F006F96D
:1013E000002000F003F9F0B200F000F90949087B91
:1013F00000F014F9002000F0F9F8E8B200F0F6F877
:10140000002000F0F3F8F8B200F0F0F800F01CF95A
:10141000BDE8F081080100202DE9FF4F83B081462F
:101420008A469346DDE91064404800880290A6F1A0
:101430002000C6B204EBD47009EB6000401E82B2FB
:101440000AEB0400401E83B2514648460194FFF760
:10145000B7FF129850BB002525E00C2C07D106EBF6
:101460004600334901EB800010F8058004E0314864
:1014700000EB061010F8058000270DE008F00100D1
:1014800018B1584600F080F902E0069800F07CF9A7
:101490004FEA6808781CC7B204EBD471B7EB610F50
:1014A000ECDB681CC5B2A542D7DB2DE0002529E0A6
:1014B0000C2C07D106EB46001D4901EB800010F80B
:1014C000058004E01B4800EB061010F8058000279B
:1014D00011E01648A0F800B008F0010038B10AEB9E
:1014E000050291B209EB070290B2FFF7CDFD4FEA7A
:1014F0006808781CC7B204EBD471B7EB610FE8DB66
:10150000681CC5B2A542D3DB0849029808800A4886
:101510004088401E83B208480088401E82B20021E5
:101520000846FFF74DFF07B0BDE8F08F60000020D0
:10153000DC54000850590008080100202DE9FF4F35
:1015400083B0074691461E46109C4FF0000A0025C6
:1015500043E0701B401EC1B20A2001F081FBB9FBC1
:10156000F0F00A21B0FBF1F201FB1208BAF1000F12
:101570001BD1701EA84218DDB8F1000F13D1002056
:101580002021A346CDE90014029004EBDB71491041
:1015900001FB057188B213490B8813490A88049925
:1015A000FFF73AFF17E04FF0010A002108F1300081
:1015B000C0B2A346CDE90141009004EBDB714910B4
:1015C00001FB057188B207490B8807490A8804990D
:1015D000FFF722FF00BF681CC5B2B542B9DB07B0F8
:1015E000BDE8F08F620000206000002010B50446C6
:1015F0004FF40070074908608020091F08602146E9
:10160000054800F041FA4FF400700249091F0860D4
:1016100010BD0000140C01400030014010B504461C
:101620004FF4007006490860802008602146054894
:1016300000F02AFA4FF400700149091F086010BD3C
:10164000140C01400030014010B50249087AFFF740
:10165000E5FF10BD0801002070B505460C46284680
:10166000FFF7DCFFE0B2FFF7C1FF70BD10B5044625
:101670002A201C4948812B2088812C20088134B1E4
:10168000012C0ED0022C16D0032C28D11DE0802076
:1016900014490880A0204880C0213620FFF7DCFFD5
:1016A0001EE0A0200F49088080204880A02136201D
:1016B000FFF7D2FF14E080200A490880A02048806C
:1016C00000213620FFF7C8FF0AE0A0200549088066
:1016D0008020488060213620FFF7BEFF00E000BF79
:1016E00000BF10BD0801002070B505460C46164627
:1016F0001E48844204D10121042000F0D5F82EE0D8
:101700001B48844204D10121082000F0CDF826E0D6
:101710001848844204D10121102000F0C5F81EE0D1
:101720001548844204D10121202000F0BDF816E0C4
:101730001248844204D10121402000F0B5F80EE0A7
:101740000F48844204D10121802000F0ADF806E06A
:101750000C48844203D10121801500F0A5F82C60CB
:10176000AE80284601F09AF970BD000000080140E3
:10177000000C01400010014000140140001801401D
:10178000001C01400020014010B504464FF40070D9
:10179000094908608020091F08602112074800F0ED
:1017A00073F9E1B2054800F06FF94FF40070024997
:1017B000091F086010BD0000140C014000300140FA
:1017C00000BFFEE77047000070B5002100230F2224
:1017D000C47804B3154C246804F4E064C4F5E064F0
:1017E000210AC1F10403CA40447804FA03F1847861
:1017F0001440214309010E4C0678A155047804F0E9
:101800001F050124AC4005786D11AD0005F1E02500
:10181000C5F8004109E0047804F01F050124AC403C
:10182000044D0678761145F8264070BD0CED00E0B9
:1018300000E400E080E100E002490143024A116057
:10184000704700000000FA050CED00E010B50446FA
:101850000121042000F028F80121082000F024F8DC
:101860000121102000F020F810BD10B50446002121
:10187000042000F019F80021082000F015F80021DC
:10188000102000F011F810BD29B1064AD2690243B8
:10189000044BDA6104E0034AD2698243014BDA6106
:1018A000704700000010024029B1064A92690243C5
:1018B000044B9A6104E0034A92698243014B9A61A6
:1018C000704700000010024030B5002100220024C3
:1018D00000232D4D6D6805F00C0121B1042905D0C0
:1018E000082923D105E0294D056022E0274D056038
:1018F0001FE0254D6D6805F47012234D6D6805F4E9
:101900008034022505EB92421CB9214D55430560F8
:101910000BE01D4D6D6805F400351DB11C4D5543A0
:10192000056002E0194D5543056002E0174D056062
:1019300000BF00BF144D6D6805F0F0010909154D99
:101940006B5C0568DD4045600F4D6D6805F4E06136
:10195000090A104D6B5C4568DD4085600A4D6D6875
:1019600005F46051C90A0B4D6B5C4568DD40C560EC
:10197000054D6D6805F44041890B074D6B5CC568EA
:10198000B5FBF3F5056130BD0010024000127A008E
:1019900000093D00720000208200002000B587B0E1
:1019A00001210520FFF780FFA020ADF804000320EF
:1019B0008DF8060018208DF8070001A91B48FFF7D5
:1019C00005F94020ADF8040048208DF807000320F9
:1019D0008DF8060001A91548FFF7F8F80121080362
:1019E000FFF762FF0020ADF808004FF48270ADF8F9
:1019F0000A000020ADF80C00ADF80E00ADF81000A4
:101A00004FF40070ADF812000020ADF81400ADF8EE
:101A100016000720ADF8180002A9054800F016F8D6
:101A20000121034800F006F807B000BD000801409E
:101A30000030014021B1028842F04002028004E0FF
:101A400002884FF6BF731A400280704710B500221B
:101A5000028802F441520B884C8823438C8823432C
:101A6000CC8823430C8923434C8923438C8923430B
:101A7000CC8923431A430280838B4FF2FF742340A7
:101A800083830B8A038210BD024600BF108900F0D9
:101A900002000028FAD0918100BF108900F00100F7
:101AA0000028FAD09089C0B2704710B500F002F853
:101AB00010BD00000CB50020019000903348006874
:101AC00040F480303149086000BF3048006800F4BD
:101AD000003000900198401C0190009818B90198BE
:101AE000B0F5A06FF1D12948006800F4003010B1C2
:101AF0000120009001E0002000900098012843D1CF
:101B00002348006840F0100021490860084600683A
:101B100020F0030008600846006840F002000860FA
:101B20001A484068194948600846406848600846B5
:101B3000406840F4806048600846406820F47C10AB
:101B400048600846406840F4E8104860084600686D
:101B500040F08070086000BF0C48006800F0007022
:101B60000028F9D00948406820F003000749486080
:101B70000846406840F00200486000BF03484068E3
:101B800000F00C000828F9D10CBD00000010024044
:101B9000002002402DE9FF4F83B00646884691465B
:101BA000DDE91147109DB2464FF0000B71E0BBF12B
:101BB000000F40D104EBD471384A1288A2EB6101C6
:101BC000B14204DB35494988091B414502DA07B0B7
:101BD000BDE8F08F2878802802DD4FF0010B58E037
:101BE00028780D2806D108EB04001FFA80F8564625
:101BF0006D1C1EE0102C0DDD102128788DE883006F
:101C00004A4641463046069BFFF706FC06F10800AF
:101C100086B20EE028788DE891004A46414630466B
:101C2000069BFFF7F9FB204604EBD07106EB610140
:101C30008EB26D1C2DE019480088001BB04204DBF9
:101C400016484088001B404500DAC0E74FF0000B03
:101C5000202C08D1CDE900574A4641463046069B24
:101C6000FFF75CF912E0182C08D1CDE900574A467D
:101C700041463046069BFFF7C5F807E0CDE900571F
:101C80004A4641463046069BFFF738F8AD1C3019EE
:101C900086B2287800288AD100BF98E70801002082
:101CA000042808D14FF0E021096941F004014FF008
:101CB000E022116107E04FF0E021096921F0040101
:101CC0004FF0E0221161704710B503F05DF9012873
:101CD00001D002F061FD10BD10B51348006840F05E
:101CE00001001149086008464068104908400E4943
:101CF0004860084600680E4908400B4908600846DD
:101D0000006820F4802008600846406820F4FE0047
:101D100048604FF41F008860FFF7C7FE4FF0006077
:101D20000449086010BD0000001002400000FFF8E8
:101D3000FFFFF6FE08ED00E030B589B005460C4621
:101D400001210846FFF7A0FD01210420FFF7ACFDAB
:101D50000620ADF8200018208DF8230003208DF810
:101D6000220008A91848FEF731FFADF81850ADF869
:101D700014400020ADF81A00ADF8160005A94FF088
:101D8000804000F09FF96020ADF804000120ADF81C
:101D900006000020ADF80C0001A94FF0804000F0D3
:101DA000D3F80821C80600F021F901A94FF08040BE
:101DB00000F02AF90821C80600F076F90121880709
:101DC00000F09BF809B030BD0008014030B589B083
:101DD00005460C4601210220FFF756FD012108208F
:101DE000FFF762FD0120ADF8200018208DF82300D8
:101DF00003208DF8220008A91348FEF7E7FEADF88E
:101E00001850ADF814400020ADF81A00ADF81600D7
:101E100005A90E4800F056F96020ADF80400012035
:101E2000ADF806000020ADF80C0001A9074800F04D
:101E3000EBF80821054800F037F90121034800F0CC
:101E40005CF809B030BD0000000C01400004004007
:101E500008B50020009001210B4800F05AF890B11D
:101E60000121094800F046F869460848006802F078
:101E70008DFF009838B14FF0805005490860BFF3DE
:101E80004F8FBFF36F8F08BD000800401C0000207B
:101E900004ED00E07FB505460C4601210420FFF764
:101EA000F3FCADF80850ADF804400020ADF80A008E
:101EB000ADF8060001A90E4800F004F90022012146
:101EC0000B4800F037F81E208DF8000005208DF833
:101ED000010000208DF8020001208DF80300684603
:101EE000FFF772FC0021024800F007F87FBD0000F8
:101EF00000080040CA430282704721B1028842F0C4
:101F00000102028004E002884FF6FE731A4002804C
:101F1000704730B50246002000230024158A05EAE8
:101F20000103958905EA010413B10CB1012000E019
:101F3000002030BD1AB183890B43838102E083897D
:101F40008B4383817047000070B50024002200237A
:101F5000058C4FF6EF7635400584028C8388048B20
:101F600048F6FF752C404FF6FF452C400D884FF684
:101F7000FF7606EA05252C434FF6DF752A400D89CA
:101F800006EA05152A434D8806EA05152A43154D2C
:101F9000A84202D0144DA8421DD14FF67F752A40A9
:101FA0004D894FF6FF7606EA05152A434FF6BF75B1
:101FB0002A408D8806EA05152A434FF6FF352B4047
:101FC0004FF2FF752B408D8906EA85052B43CD899D
:101FD00006EA85052B4383800483CD880587028428
:101FE00070BD0000002C0140003401400A46002171
:101FF000018B4FF2FF7319404FF6FF7303EA022380
:10200000194301837047000070B5002400220023AB
:10201000058C4FF6FF6635400584028C8388848BDF
:102020004FF68F752C404FF6FC752C400D882C43D5
:102030004FF6FF552A400D894FF6FF7606EA052533
:102040002A434D8806EA05252A43154DA84202D0A9
:10205000144DA8421DD14FF2FF752A404D894FF60D
:10206000FF7606EA05252A434FF6FF352A408D887C
:1020700006EA05252A434EF6FF752B404DF6FF75FF
:102080002B408D8906EA05152B43CD8906EA0515F7
:102090002B4383808483CD888587028470BD0000B4
:1020A000002C0140003401400A460021818B4FF68C
:1020B000F773194011438183704701877047818707
:1020C00070470000002202881D4B98420ED01D4B25
:1020D00098420BD0B0F1804F08D01B4B984205D0EE
:1020E0001A4B984202D01A4B984204D14FF68F7384
:1020F0001A404B881A43174B984207D0164B984208
:1021000004D04FF6FF431A40CB881A4302808B88D5
:1021100083850B8803850A4B98420BD0094B984264
:1021200008D00E4B984205D00D4B984202D00D4B73
:10213000984201D10B7A0386012383827047000005
:10214000002C014000340140000400400008004021
:10215000000C00400010004000140040004001400E
:10216000004401400048014010B540F225511D488F
:1021700000F053F810B31B4800F0E6F8C4B21A4858
:10218000008800F40040C8B91748008800F4804077
:1021900060B10A2C03D000201349088020E01248C7
:1021A000008840F400401049088019E00D2C06D149
:1021B0000D48008840F480400B49088010E00A4830
:1021C0000088C0F30D0009490C5407480088401CE2
:1021D0000549088008460088C72801DD00200880DE
:1021E00010BD0000003801406C00002016010020E6
:1021F00021B1828942F40052828104E082894DF645
:10220000FF731A40828170471AB1838A0B4383821D
:1022100002E0838A8B438382704770B502460024B4
:1022200000230025002040F66A16B14200D100BF0D
:10223000C1F3421501F01F03012606FA03F3012D35
:1022400002D19689334006E0022D02D1168A33402E
:1022500001E0968A33400C12012606FA04F416882F
:10226000344013B10CB1012000E0002070BD00002B
:102270002DE9F04786B005460E460024A24600BF71
:10228000A1460027B08900B100BF2F462C8A4CF62A
:10229000FF700440F08804432C82AC894EF6F310A2
:1022A0000440B08831890843718908430443AC81F4
:1022B000AC8A4FF6FF400440B0890443AC8201A8C9
:1022C000FFF702FB1F48874202D1DDF810A001E0B2
:1022D000DDF80CA0A88900F4004040B10AEBCA0068
:1022E00000EB0A1031684900B0FBF1F807E00AEB97
:1022F000CA0000EB0A1031688900B0FBF1F86420D5
:10230000B8FBF0F004012009642101FB1089A889C1
:1023100000F4004040B1322000EBC900B0FBF1F006
:1023200000F00700044308E0322000EB09106421AC
:10233000B0FBF1F000F00F0004432C8106B0BDE8C3
:10234000F08700000038014001468888C0F308008B
:10235000704700BFFEE700BF7047000070B505463C
:1023600005B970BD002412E00B48FEF72FFA4FF4B8
:10237000167000F0EDF80848FEF721FA681EA0423A
:1023800003D04FF4167000F0E3F8601CC4B2AC4206
:10239000EADB00BFE5E700002800002010B5044696
:1023A0001F492068884204D101210420FFF77CFAEC
:1023B00034E01C492068884204D101210820FFF73D
:1023C00073FA2BE018492068884204D101211020BB
:1023D000FFF76AFA22E015492068884204D10121FA
:1023E0002020FFF761FA19E011492068884204D1E2
:1023F00001214020FFF758FA10E00E49206888427A
:1024000004D101218020FFF74FFA07E00A49206834
:10241000884203D101218015FFF746FA10BD000064
:1024200000080140000C0140001001400014014070
:1024300000180140001C0140002001400EB54EE094
:1024400000235A1E19462648006802F0F9F925486B
:102450008079002843D02348408800280EDD214899
:102460004088401E1F49488010200090084642883E
:10247000032328210846FFF761F830E0194801F0EE
:10248000ADFB0320FFF76AFF4FF6FF70A023802209
:102490008C2100900020FEF705FE0020102112A2E2
:1024A0004FF6FF73CDE9002102901F228C21FFF728
:1024B00071FB01200B490871084600F0E9FB102070
:1024C000009008484288032328210846FFF736F881
:1024D00000F00CF903200349087000204871AFE7B1
:1024E0001C00002038000020436F6D706C6574651F
:1024F0006400000010B50420FFF7D2FB104800680C
:102500001049B0FBF1F0104908700D4800680D4902
:10251000B0FBF1F44FF47A70444301200B4908807A
:102520004FF0E020006940F002004FF0E021086128
:1025300008464461006940F00100086110BD0000D8
:102540004000002040420F006E000020700000207C
:1025500070B5044602F018FD012810D00B48008821
:10256000844206D309480088B4FBF0F5284601F000
:1025700045FE06480088B4FBF0F100FB11444FF41F
:102580007A7104FB01F000F003F870BD70000020C8
:1025900070B5034600224FF0E02675690D4E36787F
:1025A00003FB06F44FF0E026B16910E04FF0E0269F
:1025B000B06988420BD0884202D20E1A324402E03F
:1025C0002E1A0E4432440146A24200D300E0EDE749
:1025D00000BF70BD6E00002030B50446002504E049
:1025E0004FF47A70FFF7D4FF6D1CA542F8D330BDCD
:1025F00086B049E025484FF48043254A04A900905D
:1026000005A8FEF75BF90020102122A24FF6FF7308
:10261000CDE9002102901F225021FFF7BBFA1020C4
:10262000022300909DF8142050212820FEF786FFF9
:102630001B48807920B39DF814001E2820DB184821
:1026400001F0CCFA0420FFF789FE00F04FF80020DB
:102650001349087048714FF6FF70A02380228C2127
:1026600000900020FEF71EFD002010210DA24FF665
:10267000FF73CDE9002102901F228C21FFF78AFA17
:102680004FF4FA70FFF764FFB4E700003000002059
:102690000010014054656D703A3030430000000076
:1026A000380000204F766572206865617421000053
:1026B00001210120094A12680AB100200CE0084AF1
:1026C00012680AB1002007E0064A1368064A126839
:1026D000521E934200D1022070470000C80400201F
:1026E000AC000020F00400209800002010B5032169
:1026F0004FF08040FFF7E1FC014800F0E9F910BD20
:102700002000002000BF054A128802F04002002A83
:10271000F9D0C2B2014B1B1D1A807047003801402E
:102720000EB5DDE000235A1E19466E48006802F01F
:1027300087F80128F5D102F037FC04460026CDE0E9
:102740004FF480516848FEF7CCFA002872D002F0AE
:102750002BFC051B002E6BD1B5F57A7F68D863483A
:10276000407908B9012000E000206049487108461E
:102770004079E0B35E48FEF722F800F07DFA4FF6AC
:10278000FF7023238022002100900846FEF78AFC78
:102790004FF6FF70A02380228C2100900020FEF7CE
:1027A00081FC4FF6FF70732380226421009000208B
:1027B000FEF778FC4FF6FF70232380220021009063
:1027C0000846FEF76FFC002010214AA24FF6FF7367
:1027D000CDE9002102901F221421FFF7DBF94348C5
:1027E0000078032824D100204049087020E0FFE74A
:1027F000FFF77CFF4FF6FF7023238022002100901B
:102800000846FEF74FFC002010213DA24FF6FF7353
:10281000CDE9002102901F221421FFF7BBF93348B4
:10282000807928B1314801F0D9F93148FDF7CEFF60
:1028300055E0FFE702F0B8FB051BB5F57A7F4AD9F2
:10284000002E48D101262948407930B327488079A5
:1028500018BB26480078012806D0244800780228B2
:1028600002D022480078C0B94FF6FF70732380224F
:10287000642100900020FEF715FC4FF6FF70A023A6
:1028800080228C2100900020FEF70CFC0220FFF734
:1028900065FD164801F0DCF81DE014484079D0B918
:1028A000124801F09BF90120FFF758FD4FF6FF7029
:1028B000A02380228C2100900020FEF7F3FB002053
:1028C000102112A24FF6FF73CDE9002102901F22C2
:1028D0008C21FFF75FF90A20FFF73AFE30E700BFCF
:1028E00020E7000014000020000C01403800002008
:1028F00028000020646F6F7220636C6F7365640042
:10290000646F6F72206F70656E000000436C6F73B0
:102910006520646F6F7200000EB5ACE000235A1E94
:1029200019465548006801F08BFF0128F5D102F0E7
:102930003BFB044600269CE002215048FEF7D1F9FB
:10294000002852D002F030FB051B002E4CD1B5F50B
:102950007A7F49D84A480078012814D148484088ED
:1029600014304749488008464088C82801DD0020C7
:1029700048801020009042484288032328210846BE
:10298000FEF7DCFD30E03E48007802280DD13C48DF
:102990000079401C032190FBF1F201FB1200384941
:1029A0000871084600F074F91EE03548007818B147
:1029B00033480078032817D10120314908704FF6B9
:1029C000FF7073238022642100900020FEF76AFBD1
:1029D000002010212BA24FF6FF73CDE900210290B9
:1029E0001F226421FFF7D6F844E002F0DDFA051B50
:1029F000B5F57A7F3AD9CEBB012621480078012867
:102A000018D102201E4908704FF6FF7073238022F0
:102A1000642100900020FEF745FB002010211CA23D
:102A20004FF6FF73CDE9002102901F226421FFF7CA
:102A3000B1F81BE012480078022817D10120104994
:102A400008704FF6FF7073238022642100900020ED
:102A5000FEF728FB002010210AA24FF6FF73CDE9F4
:102A6000002102901F226421FFF794F80A20FFF74B
:102A70006FFD61E700BF51E718000020000C014026
:102A80003800002054696D652073657400000000F3
:102A9000506F7765722073657400000038B5044686
:102AA000A088ADF8000010208DF8030003208DF8F9
:102AB000020069462068FEF789F8204600F001F818
:102AC00038BD10B50446A1882068FEF715F910BD81
:102AD00010B50446A1882068FEF70CF910BD00006F
:102AE0001CB54FF44070FEF7A7FEFFF703FD4FF44F
:102AF000E13001F0ABF84FF4005217491748FEF7E8
:102B0000F3FD4FF4004216491648FDF7F5FD43F674
:102B10003F016320FFF75AF943F63F016320FFF7B7
:102B20000BF9FDF787FF41F61F4142F20F70FFF7E7
:102B3000B1F9FEF707FB0C4800F022F80B48012121
:102B400000234022CDE9001009A10C4802F0ECF965
:102B500001F0F0FC00201CBD00100140200000200E
:102B6000000C014028000020380000200000002058
:102B700073746172745F7461736B0000E53A0008EE
:102B80003EB504464FF6FF70A0238022002100903E
:102B90000846FEF787FA002020706080012020712F
:102BA0000020A07160712248FFF792FF00201021E1
:102BB00020A24FF6FF73CDE9002102901F221421BD
:102BC000FEF7E8FF4FF4FA60FFF7C2FC4FF6FF7024
:102BD00023238022002100900846FEF763FA00209C
:102BE000102119A24FF6FF73CDE9002102901F2298
:102BF0002821FEF7CFFF10200090628803232821B0
:102C00000846FEF79BFC0020102112A24FF6FF732E
:102C1000CDE9002102901F223C21FEF7BBFF204698
:102C200000F036F800214FF08040FFF748FA3EBD33
:102C3000200000204D6963726F77617665204465DE
:102C40006D6F2056312E310054696D653A20202079
:102C500020730000506F7765723A303030300000DA
:102C600010B50246012000E050430B1EA1F1010403
:102C7000E1B2F9D110BD000010B50821C806FFF778
:102C80001CFA0248FFF71DFF10BD000020000020C5
:102C90003EB50546287920B1012804D0022806D186
:102CA00003E010A405E010A403E011A401E00EA4C9
:102CB00000BF00BF4FF6FF704B2380223C210090E5
:102CC0003020FEF7EFF9002010214FF6FF734FF48C
:102CD0007842CDE9004102903C213020FEF75AFFB6
:102CE0003EBD00004C6F77004D656469756D000056
:102CF00048696768000000002DE9F04105460E466E
:102D00001C4807681C480068001D00F0EFFF50B920
:102D10001948006890F82C1001208840174909686C
:102D2000814316480160681C38B936B11248016801
:102D3000091D134801F018F81AE07C190E480068C4
:102D40004460BC4207D20C480168091D0D48006868
:102D500000F0F0FF0CE008480168091D0A4800680F
:102D600000F0E8FF09480068844201D20748046087
:102D7000BDE8F0819C00002088000020A000002019
:102D8000F0040020900000208C000020B8000020FB
:102D900010B5044600F0F4FF24480068401C2349A5
:102DA00008602348006840B921480460084600686C
:102DB00001280DD100F04CFA0AE01E48006838B92D
:102DC0001B480068C06AE16A884201D8184804605C
:102DD00019480068401C184908600846006860648B
:102DE00094F82C10012088401449096808431349BD
:102DF0000860E16A01EB8101114A02EB8100211DAB
:102E000000F0B2FF01F000F80A48006868B1084815
:102E10000068C06AE16A884207D24FF080500949D1
:102E20000860BFF34F8FBFF36F8F10BD9800002075
:102E300088000020A4000020B4000020A000002092
:102E40002002002004ED00E010B500F099FF1048CA
:102E50000068D0B90F4800F05DFF0F4800F05AFF3E
:102E60000C480E4908600C480D49086000221021EA
:102E7000052001F0ABFC064908600846006820B157
:102E800008A10348006801F07DF900F0BDFF10BD06
:102E9000CC0000200405002018050020C4000020FC
:102EA000C8000020546D72510000000070B523E08E
:102EB00001F0C6FB1348006808B9012000E00020BB
:102EC000054602F0EFF9BDB900F05AFF0D48C068A1
:102ED000C468201D00F00AFF0B480068401E0A4924
:102EE00008600A480068401E0849086000F08CFF2E
:102EF000204600F060F800BF044800680028D7D1E1
:102F000070BD0000DC040020980000209400002028
:102F100070B504460D46206C70B1216CE068084421
:102F2000E0606168E068884201D32068E06028467C
:102F3000226CE168FDF744FA70BD2DE9F0410446CA
:102F40000F4615464FF00008A66B206C40B920686C
:102F500060BB606802F0DEF880460020606025E01B
:102F60007DB93946226CA068FDF72AFA216CA06869
:102F70000844A060D4E90110884217D32068A060FB
:102F800014E03946226CE068FDF71AFA216CE0681B
:102F9000401AE0602168E068884203D2216C6068D2
:102FA000401AE060022D01D106B1761E701CA063AC
:102FB0004046BDE8F08110B50446206B00F05CFF90
:102FC000204600F059FF10BD002101220C4B1B6868
:102FD000012B00D901210B4A1268D26A0AB10020E4
:102FE0000DE0094A1268012A01D9002007E009B161
:102FF000002004E0054A1268054B1B68D01A704790
:10300000A00000208800002020020020B80000203E
:103010009C0000200146084A126812680AB9012281
:1030200000E000220A600A6822B9034A1268D268E6
:10303000106800E000207047C400002030B54FF455
:103040002053174800F007042CB1C01D20F00700E2
:10305000134C041B1B1B0246124C22600024114D12
:103060006C60D018083820F007000F4C2060002456
:103070000D4D2D686C600C4D2D682C601146441A66
:103080004C60094C24680C60084D4C682C60084D5D
:103090004C682C604FF00044064D2C6030BD0000A1
:1030A0002C050020D8000020E0000020E8000020CF
:1030B000E4000020EC00002000BFFFF7F7FE1748F7
:1030C0000068012807D94FF0805015490860BFF308
:1030D0004F8FBFF36F8FFFF777FF0446022C1BD390
:1030E00001F0AEFA0F4800680F490968884201D321
:1030F000012000E0002028B940F68F420BA110A06B
:10310000FDF7B8F8FFF760FF0446022C02D3204613
:1031100000F03CFF02F0C6F8CFE7000020020020DC
:1031200004ED00E0B80000209C0000202E2E5C463C
:1031300072656552544F535C7461736B732E6300F8
:103140004572726F723A25732C25640D0A000000D7
:103150002DE9F04106460D4617469846069C0DB9E6
:10316000246000E02760E66325640121204601F029
:103170004BFC84F850800020A064BDE8F081000082
:103180002DE9F05F82460F4690469B460A9E0C9CB6
:103190004FEA8801A522206BFDF757F9A8F101003D
:1031A000216B01EB800929F0070909F0070008B934
:1031B000012000E0002028B940F22B321BA120A002
:1031C000FDF758F8002507E0795D04F1340041551A
:1031D000785D00B902E06D1C102DF5D300BF002111
:1031E00043200155202E00D31F26E662E66400200E
:1031F0002065201D00F09BFD04F1180000F097FDF4
:103200002461C6F12000A06164620020606584F83A
:1032100058005A465146484600F000FC20600B9882
:1032200008B10B980460BDE8F09F00002E2E5C46AC
:1032300072656552544F535C7461736B732E6300F7
:103240004572726F723A25732C25640D0A000000D6
:1032500010B5002407E004EB84010F4A02EB810063
:1032600000F058FD641C202CF5D30C4800F052FDF2
:103270000B4800F04FFD0B4800F04CFD0A4800F0F1
:1032800049FD0A4800F046FD044809490860044821
:103290000849086010BD000020020020A0040020A2
:1032A000B4040020C8040020DC040020F004002046
:1032B0008C0000209000002010B50146164800E068
:1032C000006803688B42FBD30246436813448B4279
:1032D00004D143684C682344436001460A464B6866
:1032E00013440468A34211D10C4C03682468A34220
:1032F00008D04B680468646823444B6003681B680B
:103300000B6005E0054B1B680B6001E003680B6078
:10331000884200D0016010BDD8000020E0000020ED
:103320002DE9F04104460D4616461F464FF00008B1
:1033300065602461B5420CD8F01BA169884202D3B4
:103340004FF0010811E0211D0948006800F0F2FC6F
:103350000BE0BE4204D2BD4202D34FF0010804E0AC
:10336000211D0448006800F0E5FC4046BDE8F081FE
:10337000C8000020C400002070B5054600F000FD24
:10338000A86B08B9012400E0002400F03DFD2046B0
:1033900070BD70B5054600F0F3FCA86BE96B884280
:1033A00001D1012400E0002400F02EFD204670BD74
:1033B0002DE9F3410D460098846C00272CB940F6A6
:1033C000CE121AA11EA0FCF755FFA06BE16B88423C
:1033D00001D2012000E0002028B940F6CF1213A14D
:1033E00017A0FCF747FFA06BE16B88421BD294F952
:1033F00045602A4669462046FFF79FFD0746701C38
:1034000060B9606A08B9012000E0002050B904F1F9
:10341000240001F0EBFE28B1012703E0701C40B24C
:1034200084F8450000BF3846BDE8FC812E2E5C467E
:1034300072656552544F535C71756575652E6300F6
:103440004572726F723A25732C25640D0A000000D4
:10345000F8B505460F4613480068C068C468201DCB
:1034600000F044FCE069012818D1A06941192B46FD
:103470003A462046FFF754FF80B1002003462A4613
:1034800001460090204601F0D7FF06462EB94FF4C2
:10349000027205A10AA0FCF7EDFE00BF2046616A9A
:1034A0008847F8BDC40000202E2E5C467265655228
:1034B000544F535C74696D6572732E630000000095
:1034C0004572726F723A25732C25640D0A00000054
:1034D000F0B587B070E0039800280CDA04AE2EB97E
:1034E00040F2E7223AA140A0FCF7C4FED6E9002052
:1034F000B168904700BF039800285DDB059C6069B8
:1035000008B9012000E0002010B9201D00F0EEFBFA
:1035100002A800F0C7F8054603980A284AD2DFE857
:1035200000F00905072C2E4506082D2F00BF00BF0F
:1035300000BF00BF0498A269811803462A462046AE
:10354000FFF7EEFEC0B12046616A8847E0690128B6
:1035500012D1002000900498A16942180023194656
:10356000204601F069FF07462FB940F2213218A129
:103570001DA0FCF77FFE00BF1DE000BF1BE000BFE9
:103580000498A061A06908B1012000E0002028B9DA
:103590004FF44E720EA114A0FCF76CFEA069411905
:1035A0002B462A462046FFF7BBFE04E0204600F0EB
:1035B00063FC00E000BF00BF00231A4603A90E48C9
:1035C000006801F03DF9002885D107B0F0BD00008A
:1035D0002E2E5C4672656552544F535C74696D655E
:1035E00072732E63000000004572726F723A257389
:1035F0002C25640D0A000000CC000020F8B505461B
:103600000C4601F01DF8684600F04CF8064600989C
:1036100020BB44B9B54206D801F044FE31462846E5
:10362000FFF716FF1CE03CB10E480068006808B9BF
:10363000012000E000200446A91B22460A48006839
:1036400000F0B6FD01F02EFE50B94FF08050074952
:103650000860BFF34F8FBFF36F8F01E001F022FED0
:10366000F8BD0000C8000020CC00002004ED00E000
:103670000A490968096809B9012100E0002121B15E
:103680004FF0FF31064A116006E004490968C96835
:10369000C868034A41681160704700008C00002030
:1036A000B800002070B5044601F07EFC05460748CE
:1036B0000068854204D200F00BF80120206001E090
:1036C0000020206001480560284670BDD40000201D
:1036D0002DE9F8432DE021480068C06805681F48BF
:1036E0000068C068C468201D00F000FB2046616AC5
:1036F0008847E06901281CD1A0694619AE4207D964
:1037000066602461211D1548006800F013FB10E07D
:10371000002003462A4601460090204601F08CFE18
:1037200007462FB940F292320DA113A0FCF7A2FD7B
:1037300000BF0A480068006808B9012000E00020C6
:103740000028C8D00548D0F800800F480068034919
:1037500008600D48C0F80080BDE8F883C400002070
:103760002E2E5C4672656552544F535C74696D65CC
:1037700072732E63000000004572726F723A2573F7
:103780002C25640D0A000000C80000200B480068CA
:10379000401C08B9012000E0002020B9F42208A153
:1037A00012A0FCF767FD00BF302080F31188BFF343
:1037B0004F8FBFF36F8F00BF00BFFEE7F000002008
:1037C0002E2E5C4672656552544F535C706F727456
:1037D00061626C655C525644535C41524D5F434D8F
:1037E000335C706F72742E63000000004572726F5C
:1037F000723A25732C25640D0A00000008B500BF3D
:103800006846FFF707FC044620460099FFF7F6FEDE
:10381000FFF75EFEF4E770B5044600F0B1FA94F9E4
:1038200045501AE0A06C38B100212046FFF7C0FDDA
:1038300088B100F0A3FD0EE0606A08B9012000E045
:10384000002038B904F1240001F0D0FC18B100F0D8
:1038500095FD00E003E0681E45B2002DE2DC00BFEC
:10386000FF2084F8450000F0CFFA00F089FA94F9BF
:10387000445010E0206908B9012000E0002048B958
:1038800004F1100001F0B2FC08B100F077FD681EF1
:1038900045B200E001E0002DECDC00BFFF2084F821
:1038A000440000F0B1FA70BD2DE9F04104464FF03C
:1038B000000800F0C5FE3E48006808B9FFF7BEFBEF
:1038C0003C480068204000285FD1A4B1083404F0CF
:1038D000070080B104F00700C0F10800044404F0C0
:1038E000070008B9012000E0002020B9BF2232A162
:1038F0003BA0FCF7BFFC002C47D03D480068844249
:1039000043D83C4E3046056801E02E462D68686875
:10391000A04202D228680028F7D1254800688542D5
:1039200033D0306800F10808286830606868001BF0
:10393000102813D92F1907F0070008B9012000E05B
:10394000002020B9EC221CA125A0FCF793FC68689C
:10395000001B78606C603846FFF7AEFC244968684D
:103960000968081A2249086008460068224909685F
:10397000884203D21E4800681F4908600D496868E4
:103980000968084368600020286001F08BFC08F09B
:10399000070008B9012000E0002028B94FF4967212
:1039A00005A10FA0FCF766FC4046BDE8F0810000D1
:1039B000E0000020EC0000202E2E5C46726565526F
:1039C000544F535C706F727461626C655C4D656DD1
:1039D0004D616E675C686561705F342E6300000046
:1039E0004572726F723A25732C25640D0A0000002F
:1039F000E4000020D8000020E8000020064800680D
:103A000030B10549096801F15000096D491C016098
:103A1000014800687047000088000020001F4FF038
:103A200080730360001F21F001030360001F034B3C
:103A30000360143802602038704700008D3700089A
:103A400010B50446A1882068FDF74BF910BD0000B1
:103A50003EB50546688800283BDD6879002838D0E7
:103A60000120A871287920B1012804D0022806D1AC
:103A700003E0322405E0462403E0642401E0462408
:103A800000BF00BF21464FF08040FEF718FB042125
:103A90001048FEF714FB4FF6FF702323802200210D
:103AA00000900846FDF7FEFA002010210AA24FF60A
:103AB000FF73CDE9002102901F221421FEF76AF85E
:103AC00001210748FEF719FA012211460448FEF7C2
:103AD00031FA3EBD0004004048656174696E6700BC
:103AE000000800401CB5044600F04AF903220021FA
:103AF000012000F06BFE2049086003220021012014
:103B000000F064FE1D49086003220021012000F03E
:103B10005DFE1B4908601B48022100238022CDE97D
:103B2000001019A11B4801F0FFF91B4804210023D4
:103B30008A01CDE9001019A11B4801F0F5F91B48D5
:103B4000032100234FF48072CDE9001018A11B4817
:103B500001F0EAF91A48052100238022CDE900107E
:103B600018A11C4801F0E0F91B48006800F080FB38
:103B700000F04AF91CBD00001400002018000020CD
:103B80001C0000200400002064687431315F7461FF
:103B9000736B0000F1250008080000206B65793187
:103BA0005F7461736B000000212700080C00002087
:103BB0006B6579325F7461736B000000192900082E
:103BC00010000020636F6F6B696E675F7461736BC9
:103BD000000000003D240008000000203EB504461F
:103BE0000020A07100214FF08040FEF768FA00210C
:103BF0001048FEF764FA00210F48FEF77EF9002214
:103C000001210D48FEF796F94FF6FF70232380221D
:103C1000002100900846FDF745FA0020102107A278
:103C20004FF6FF73CDE9002102901F221421FDF70A
:103C3000B1FF3EBD000400400008004048656174CB
:103C4000696E672073746F707065640010B586B01C
:103C50000446012144F20400FDF726FE4FF40070F3
:103C6000ADF8140003208DF8160018208DF8170009
:103C700005A91C48FCF7AAFF4FF48060ADF81400BA
:103C800004208DF8170005A91648FCF79FFF252092
:103C90008DF8000003208DF801008DF8020001204E
:103CA0008DF803006846FDF78FFD01940020ADF804
:103CB0000800ADF80A00ADF80C00ADF810000C20BB
:103CC000ADF80E0001A90848FEF7D2FA0122402102
:103CD0000548FEF799FA01210348FEF789FA06B074
:103CE00010BD0000000801400038014001460A698B
:103CF000D1E901309860D1E90103586050688842E9
:103D000001D188685060002008611068401E106072
:103D10001068704700F1080141604FF0FF31816089
:103D200000F10801C16001610021016070470021BC
:103D30000161704710B502460B685C1C0CB9106934
:103D400007E002F1080000E04068446824689C42F3
:103D5000FAD944684C604C68A160886041600A618F
:103D60001468641C146010BD42684A6093688B60DC
:103D7000936859609160086103685B1C0360704739
:103D800010B500BF302080F31188BFF34F8FBFF311
:103D90006F8F00BF0B480068401C0A490860084646
:103DA000006801280DD108480068C0B208B9012098
:103DB00000E0002028B94FF4BD7204A10EA0FCF76A
:103DC00059FA10BDF000002004ED00E02E2E5C46F4
:103DD00072656552544F535C706F727461626C65AA
:103DE0005C525644535C41524D5F434D335C706F9F
:103DF00072742E63000000004572726F723A257370
:103E00002C25640D0A00000010B50B48006828B985
:103E100040F2811209A114A0FCF72CFA06480068B0
:103E2000401E054908600846006820B9002080F35C
:103E3000118800BF00BF10BDF00000202E2E5C4690
:103E400072656552544F535C706F727461626C6539
:103E50005C525644535C41524D5F434D335C706F2E
:103E600072742E63000000004572726F723A2573FF
:103E70002C25640D0A00000070B506463546002E5C
:103E800035D0083D2C461A4960680968084008B1D9
:103E9000012000E0002028B94FF4A07215A11FA056
:103EA000FCF7E8F9206808B9012000E0002028B9F3
:103EB00040F241120FA119A0FCF7DCF90C4960682F
:103EC0000968084098B1206888B90949606809689C
:103ED0008843606000F0B4FB1449606809680844D6
:103EE000124908602046FFF7E7F901F0DBF970BDE1
:103EF000EC0000202E2E5C4672656552544F535CD8
:103F0000706F727461626C655C4D656D4D616E675A
:103F10005C686561705F342E630000004572726FEB
:103F2000723A25732C25640D0A000000E40000207D
:103F3000124800684FF47A71B0FBF1F01049086044
:103F4000084600686FF07F41B1FBF0F00D49086052
:103F50000A480068B0FBF0F02D21B1FBF0F00A49EF
:103F60000860064800684FF47A71B0FBF1F0401E1B
:103F70004FF0E021486107200861704740000020B1
:103F8000F4000020F8000020FC0000202DE9F0479C
:103F9000044651480068844201D94F4804684FF0F4
:103FA000E020006920F001004FF0E02108610846A0
:103FB0008169601E494A126802FB00154848006882
:103FC000854202D9464800682D1A72B6BFF34F8F5A
:103FD000BFF36F8FFEF76CFB80B94FF0E020806974
:103FE0004FF0E02148610846006940F00100086197
:103FF0003A480068401E486162B66BE04FF0E0202E
:10400000456100204FF0E02188610846006940F0DA
:1040100001000861A0464046FDF727FCB8F1000406
:1040200004D0BFF34F8F30BFBFF36F8F2046FDF733
:104030000DFC4FF0E020D0F8109029F001004FF077
:10404000E021086162B609F48030B8B123490968FB
:10405000491E4FF0E0229269AA1A881A204909687D
:10406000884203D31D490968884202D91B4909685F
:10407000481E4FF0E0214861661E12E017480068B4
:1040800060434FF0E0218969471A14480068B7FB84
:10409000F0F6701C114909684843C01B4FF0E0213D
:1040A000486100204FF0E0218861FFF769FE4FF082
:1040B000E020006940F001004FF0E0210861304647
:1040C00000F08EFA05480068401E4FF0E02148617C
:1040D000FFF79AFEBDE8F087F8000020F40000200A
:1040E000FC00002070B5FCF79FF80546102D11D399
:1040F00005F1E02090F8F04310480078844201DB9D
:10410000012000E0002028B940F2AA220CA117A04B
:10411000FCF7B0F81948006800F4E0601849096835
:10412000884201D8012000E0002028B940F2BA22DC
:1041300003A10EA0FCF79EF870BD00000001002056
:104140002E2E5C4672656552544F535C706F7274CC
:1041500061626C655C525644535C41524D5F434D05
:10416000335C706F72742E63000000004572726FD2
:10417000723A25732C25640D0A0000000CED00E056
:1041800004010020024600200BE0084B53F83030B9
:1041900033B9064B43F8301003EBC0035A6002E01A
:1041A000401C0828F1D300BF70470000E001002048
:1041B0002DE9F04105460E4617462C46FFF7E0FD77
:1041C00094F94400401C10B9002084F8440094F98C
:1041D0004500401C10B9002084F84500FFF714FE8C
:1041E000A06B28B93A46314604F1240000F0F6F8F5
:1041F0002046FFF710FBBDE8F081000070B50446D3
:104200000025ACB10F48006808B9012000E000208B
:1042100028B940F2CF420CA110A0FCF72BF800F017
:104220000FFA00212046FEF767FD01F03BF8054636
:104230003DB94FF080500D490860BFF34F8FBFF379
:104240006F8F70BDC00000202E2E5C4672656552D7
:10425000544F535C7461736B732E63004572726FBD
:10426000723A25732C25640D0A00000004ED00E06D
:1042700070B50546FFF784FD15B92D48006800E0CC
:1042800028460446201DFFF731FD78B9E06A00EBAF
:104290008000284951F8200040B994F82C100120E2
:1042A000884025490968814323480160A06A18B104
:1042B00004F11800FFF71AFD20480068401C1F4950
:1042C00008601B480068844209D1211D1C48FFF783
:1042D0004BFD1C480068401C1A49086009E01A4858
:1042E0000068401E184908602046FEF764FEFFF78C
:1042F000BFF9FFF789FD15480068C0B10C48006898
:10430000844214D11248006808B9012000E000205E
:1043100028B940F265420FA113A0FBF7ABFF4FF0A5
:10432000805015490860BFF34F8FBFF36F8F70BD8A
:104330008800002020020020A0000020B4000020FF
:10434000DC0400209400002098000020A40000203D
:10435000C00000202E2E5C4672656552544F535C9F
:104360007461736B732E63004572726F723A2573BA
:104370002C25640D0A00000004ED00E00120014935
:1043800008607047AC00002070B504460D462CB99B
:1043900040F6093207A10CA0FBF76CFF0E4801683C
:1043A00018312046FFF7C6FC01212846FEF7A4FC81
:1043B00070BD00002E2E5C4672656552544F535CF2
:1043C0007461736B732E63004572726F723A25735A
:1043D0002C25640D0A0000008800002070B50546F9
:1043E0000E4614462DB940F6343209A10DA0FBF754
:1043F00041FF1048016818312846FFF7B5FC0CB1A1
:104400004FF0FF3621463046FEF776FC70BD0000C7
:104410002E2E5C4672656552544F535C7461736B0B
:10442000732E63004572726F723A25732C25640DEA
:104430000A0000008800002070B505462C46002DBB
:104440004BD02649E06A0968C96A884245D2A0690A
:1044500000F0004028B921480068C06AC0F120007F
:10446000A061E16A01EB81011D4A02EB81016069F3
:10447000884201D1012000E0002050B3201DFFF749
:1044800035FC78B9E06A00EB8000154951F820004E
:1044900040B994F82C1001208840124909688143E2
:1044A000104801600D480068C06AE06294F82C1062
:1044B000012088400B49096808430A490860E16AFD
:1044C00001EB8101064A02EB8100211DFFF74CFC44
:1044D00003E002480068C06AE06270BD8800002006
:1044E00020020020A000002010B504462CB940F6A0
:1044F000C43205A109A0FBF7BDFE0C48006820608E
:104500000B480068606010BD2E2E5C4672656552D7
:10451000544F535C7461736B732E63004572726FFA
:10452000723A25732C25640D0A000000B0000020AB
:104530009C0000201CB51A4800210B468222CDE9C0
:10454000001018A1194800F0EFFC0446012C02D11C
:1045500000F038FF0446012C15D100BF302080F355
:104560001188BFF34F8FBFF36F8F00BF4FF0FF3045
:104570000F49086001200F49086000200E490860BB
:1045800000F0BAF80BE0601C08B1012000E0002048
:1045900028B940F2847209A10DA0FBF76BFE1CBD87
:1045A000BC00002049444C4500000000B930000820
:1045B000B8000020A40000209C0000202E2E5C46A5
:1045C00072656552544F535C7461736B732E630054
:1045D0004572726F723A25732C25640D0A00000033
:1045E00010B504460B48006820440B49096888420E
:1045F00001D8012000E0002028B940F6731207A17D
:104600000BA0FBF737FE034800682044014908600F
:1046100010BD00009C000020B80000202E2E5C463B
:1046200072656552544F535C7461736B732E6300F3
:104630004572726F723A25732C25640D0A000000D2
:1046400002480068401C014908607047C000002013
:1046500010B51B48006818B101201A4908602DE008
:1046600000201849086018480068B0FA80F0C0F1CE
:104670001F0404EB8400154951F8200008B1012003
:1046800000E0002028B940F6F92211A115A0FBF79F
:10469000F1FD04EB84010D4A02EB81004168496899
:1046A000416000F1080142688A4202D141684968CC
:1046B00041604168C9680F4A116000BF10BD000029
:1046C000C0000020AC000020A0000020200200203C
:1046D0002E2E5C4672656552544F535C7461736B49
:1046E000732E63004572726F723A25732C25640D28
:1046F0000A000000880000201CB522480146097805
:104700000191FF21024611700146097800919DF840
:10471000001001F030011C4A117007211B4A116082
:1047200009E01A490968491E184A11609DF80010ED
:104730004906090E00919DF8001001F080018029C2
:10474000EFD0124909680902104A11601146098820
:1047500001F4E06111600B4A019911700C48006886
:1047600040F470000A4908600846006840F0704054
:104770000860FFF7DDFB002006490860FBF71EFD1F
:1047800000201CBD00E400E0000100200401002026
:1047900020ED00E0F000002010B500BF302080F3D5
:1047A0001188BFF34F8FBFF36F8F00BF00F002FC83
:1047B00018B14FF080500449086000BF002080F31A
:1047C000118800BF10BD000004ED00E02DE9F843A2
:1047D00005460E4690460DB1012000E0002028B9A4
:1047E0004FF4C4720DA112A0FBF744FD0EB90027CF
:1047F00001E005FB06F707F15400FFF755F8044602
:1048000044B104F1540943464A46314628460094CF
:10481000FEF79EFC2046BDE8F88300002E2E5C4685
:1048200072656552544F535C71756575652E6300F2
:104830004572726F723A25732C25640D0A000000D0
:104840002DE9FF4782B005460E461F464FF0000A8D
:104850002C462CB940F2DC4261A166A0FBF70AFDB0
:104860000EB9206C08B9012000E0002028B940F200
:10487000DD425BA15FA0FBF7FDFC00F085FB08B902
:10488000049808B9012000E0002028B94FF49C6288
:1048900053A158A0FBF7EEFC00BFFFF771FAD4F864
:1048A0003890B9F1000F3DD0D4F80C803146204645
:1048B000FEF72EFBDFB9A9F10100A063206810B953
:1048C000FFF79CF86060206908B9012000E0002033
:1048D00010BB04F1100000F089FCE8B14FF08050EB
:1048E00048490860BFF34F8FBFF36F8F14E0C4F8DF
:1048F0000C80606A08B9012000E0002060B904F172
:10490000240000F073FC38B14FF080503D4908603E
:10491000BFF34F8FBFF36F8FFFF776FA012006B01A
:10492000BDE8F087049818B9FFF76EFA0020F6E7A3
:10493000BAF1000F04D16846FFF7D6FD4FF0010A27
:10494000FFF762FAFFF77CFEFFF71AFA94F94400CA
:10495000401C10B9002084F8440094F94500401C24
:1049600010B9002084F84500FFF74EFA04A9684604
:1049700000F08AFA40BB2046FEF7FEFCF0B120684A
:1049800030B9FFF7FDF96068FFF756FDFFF73CFA15
:1049900004F124000499FFF7F7FC2046FEF73BFFE3
:1049A00000F080FC00287FF478AF4FF0805015496C
:1049B0000860BFF34F8FBFF36F8F6EE72046FEF79F
:1049C0002AFF00F06FFC68E72046FEF724FF00F0A6
:1049D00069FC2046FEF7D0FC0028EED000209EE7C0
:1049E0002E2E5C4672656552544F535C7175657529
:1049F000652E63004572726F723A25732C25640D23
:104A00000A00000004ED00E070B505460E462C4695
:104A10002CB940F21B121EA122A0FBF72BFCFFF7C2
:104A2000AFF9D4E90F12206801FB0200606000209A
:104A3000A0632068A060E06B401E226C216800FB30
:104A40000210E060FF2084F8440084F845009EB91D
:104A5000206908B9012000E00020A8B904F1100085
:104A600000F0C4FB80B14FF0805012490860BFF3E2
:104A70004F8FBFF36F8F07E004F11000FFF74AF983
:104A800004F12400FFF746F9FFF7BEF9012070BDDD
:104A90002E2E5C4672656552544F535C7175657578
:104AA000652E63004572726F723A25732C25640D72
:104AB0000A00000004ED00E02DE9FF4383B0064644
:104AC00088461D464FF0000934462CB940F2D922E1
:104AD00060A165A0FBF7CEFBB8F1000F01D1206CFF
:104AE00008B9012000E0002028B940F2DA2259A1DB
:104AF0005DA0FBF7BFFB022D02D1E06B012801D1C5
:104B0000012000E0002028B940F2DB2251A156A08C
:104B1000FBF7B0FB00F038FA08B9059808B9012096
:104B200000E0002028B940F2DE224AA14EA0FBF7A7
:104B3000A1FB00BFFFF724F9A06BE16B884201D312
:104B4000022D38D12A4641462046FEF7F6F907469F
:104B5000A06C68B129462046FEF72AFC28B34FF026
:104B6000805045490860BFF34F8FBFF36F8F1CE043
:104B7000606A08B9012000E0002068B904F124004F
:104B800000F034FB88B14FF080503B490860BFF320
:104B90004F8FBFF36F8F08E03FB14FF08050364921
:104BA0000860BFF34F8FBFF36F8FFFF72DF9012020
:104BB00007B0BDE8F083059818B9FFF725F9002084
:104BC000F6E7B9F1000F04D101A8FFF78DFC4FF013
:104BD0000109FFF719F9FFF733FDFFF7D1F894F951
:104BE0004400401C10B9002084F8440094F94500AA
:104BF000401C10B9002084F84500FFF705F905A90D
:104C000001A800F041F9F0B92046FEF7C2FBA0B1BF
:104C100004F110000599FFF7B7FB2046FEF7FBFDF6
:104C200000F040FB002885D14FF080501249086009
:104C3000BFF34F8FBFF36F8F7CE72046FEF7EBFD8E
:104C400000F030FB76E72046FEF7E5FD00F02AFB9A
:104C50000020ADE72E2E5C4672656552544F535CC2
:104C600071756575652E63004572726F723A2573B2
:104C70002C25640D0A00000004ED00E02DE9F05F32
:104C800080468A4615461E4644462CB940F29F325D
:104C900035A13AA0FBF7EEFABAF1000F01D1206C72
:104CA00008B9012000E0002028B94FF468722EA155
:104CB00032A0FBF7DFFA022E02D1E06B012801D10E
:104CC000012000E0002028B940F2A13226A12BA04B
:104CD000FBF7D0FAFFF706FA00BF3021EFF311809F
:104CE00081F31188BFF34F8FBFF36F8F00BF07466B
:104CF000A06BE16B884201D3022E2BD194F945B011
:104D0000324651462046FEF718F90BF10100C8B9AA
:104D1000A06C40B131462046FEF74AFBB8B1B5B1B0
:104D20000120286013E0606A08B9012000E000203B
:104D300068B904F1240000F059FA40B13DB10120F6
:104D4000286004E00BF1010040B284F845004FF008
:104D5000010901E04FF0000900BF87F3118800BF8F
:104D60004846BDE8F09F00002E2E5C4672656552F5
:104D7000544F535C71756575652E63004572726F93
:104D8000723A25732C25640D0A0000002DE9F047C6
:104D900007460D463C462CB940F23C4231A136A0B4
:104DA000FBF768FA206C08B9012000E0002028B960
:104DB0004FF488622BA130A0FBF75CFA206808B999
:104DC000606808B9012000E0002028B940F245429F
:104DD00024A129A0FBF74EFAFFF784F900BF302188
:104DE000EFF3118081F31188BFF34F8FBFF36F8F03
:104DF00000BF0646D4F83890E06B484529D994F9AD
:104E000045A009F10100A0630AF10100C8B9A06C36
:104E100040B100212046FEF7CBFAB8B1B5B1012070
:104E2000286013E0606A08B9012000E0002068B93A
:104E300004F1240000F0DAF940B13DB1012028600E
:104E400004E00AF1010040B284F845004FF0010887
:104E500001E04FF0000800BF86F3118800BF404614
:104E6000BDE8F0872E2E5C4672656552544F535C48
:104E700071756575652E63004572726F723A2573A0
:104E80002C25640D0A0000002DE9F04104460D4672
:104E90002CB940F6CE3219A11DA0FBF7EBF92DB9C4
:104EA00040F6CF3215A11AA0FBF7E4F9FEF768FF30
:104EB0001B4807682868401C08B9002619E01949F2
:104EC00020680968884204D06068B84201D8012689
:104ED0000FE06068381A2968884209D2286861683A
:104EE000791A401A28602046FFF7FEFA002600E0F3
:104EF0000126FEF789FF3046BDE8F0812E2E5C4684
:104F000072656552544F535C7461736B732E63000A
:104F10004572726F723A25732C25640D0A000000E9
:104F20009C000020B00000202DE9FF4F85B0804696
:104F300089461746DDE912ABB800FEF7B5FC064618
:104F400056B15C20FEF7B0FC04460CB1266304E0C9
:104F50003046FEF791FF00E000247CB10020CDE94F
:104F600000ABCDE902403A4649464046089BFEF771
:104F700007F92046FDF70CFF012501E04FF0FF3552
:104F8000284609B0BDE8F08F0549096809B9012034
:104F900005E00449096809B9022000E000207047D3
:104FA000A4000020C00000200149086870470000EC
:104FB0009C0000202DE9F0414FF0000841480068B6
:104FC000002872D140480068451C3F480560EDB993
:104FD0003E480068006808B9012000E0002028B9B8
:104FE00040F6DC123AA13FA0FBF744F937480768C6
:104FF00040480068354908603E4807603E48006800
:10500000401C3D490860FEF733FB00BF3B48006889
:1050100085423CD300BF2D480068006808B90120D4
:1050200000E0002020B14FF0FF30344908602DE04F
:1050300026480068C068C4686668B54202D22F4836
:10504000066023E0201DFEF751FEA06A18B104F1AE
:105050001800FEF74BFE94F82C10012088402849D8
:105060000968084326490860E16A01EB8101254A85
:1050700002EB8100211DFEF777FE2349E06A0968F3
:10508000C96A8842C7D34FF00108C4E700BF1E4871
:105090000068C06A00EB80001A4951F8200001281E
:1050A00001D94FF0010805E0FFE718480068401CEF
:1050B000164908601648006808B14FF001084046DC
:1050C000BDE8F081C00000209C0000208C00002082
:1050D0002E2E5C4672656552544F535C7461736B3F
:1050E000732E63004572726F723A25732C25640D1E
:1050F0000A00000090000020B0000020B80000204E
:10510000A00000202002002088000020A80000202D
:10511000AC00002070B505462C460026002D4BD073
:1051200026480068844201D1012000E0002028B90F
:1051300040F6CA6222A127A0FBF79CF8206D28B98F
:1051400040F6CC621EA123A0FBF794F8206D401E10
:105150002065E16CE06A88422ED0206D60BB201D86
:10516000FEF7C4FD78B9E06A00EB80001D4951F8F4
:10517000200040B994F82C10012088401A49096891
:10518000814319480160E06CE062E06AC0F12000F0
:10519000A06194F82C100120884013490968084345
:1051A00011490860E16A01EB81010E4A02EB8100BE
:1051B000211DFEF7D9FD0126304670BD8800002074
:1051C0002E2E5C4672656552544F535C7461736B4E
:1051D000732E63004572726F723A25732C25640D2D
:1051E0000A00000020020020A000002070B5064642
:1051F000F068C4682CB940F664321BA11FA0FBF70D
:1052000039F804F11800FEF771FD20480068A8B9CC
:10521000201DFEF76BFD94F82C10012088401C49DE
:10522000096808431A490860E16A01EB8101194ADB
:1052300002EB8100211DFEF797FD04E004F1180147
:105240001548FEF791FD1549E06A0968C96A884268
:1052500004D9012501201249086000E00025FEF76D
:1052600007FA284670BD00002E2E5C467265655216
:10527000544F535C7461736B732E63004572726F8D
:10528000723A25732C25640D0A000000C00000202E
:10529000A000002020020020C80400208800002078
:1052A000AC00002070B5002400263448006828B9FE
:1052B0004FF4FD6232A137A0FAF7DCFFFEF760FD84
:1052C0002E480068401E2D490860084600680028E6
:1052D0004FD13448006800284BD024E03248C068E1
:1052E000C46804F11800FEF701FD201DFEF7FEFC66
:1052F00094F82C10012088402C49096808432B4958
:105300000860E16A01EB8101294A02EB8100211D5D
:10531000FEF72AFD2749E06A0968C96A884202D374
:105320000120254908602048006808B9012000E0F4
:1053300000200028D2D00CB1FEF79AF91F4805686A
:1053400065B100BFFFF736FE10B101201A490860B1
:105350006D1E002DF6D1002018490860164800681F
:1053600038B10126300716490860BFF34F8FBFF3ED
:105370006F8FFEF749FD304670BD0000C000002071
:105380002E2E5C4672656552544F535C7461736B8C
:10539000732E63004572726F723A25732C25640D6B
:1053A0000A00000098000020C8040020A00000208F
:1053B0002002002088000020AC000020A80000206F
:1053C00004ED00E01CB50024FDF73EFD0B4800682D
:1053D00058B10B481F2100234FF48272CDE9001011
:1053E00008A10A48FFF7A0FD04462CB940F2331289
:1053F00007A10DA0FAF73EFF20461CBDCC000020FF
:10540000D0000020546D722053766300FD370008F1
:105410002E2E5C4672656552544F535C74696D65FF
:1054200072732E63000000004572726F723A25732A
:105430002C25640D0A0000002DE9FF4704460D46A7
:1054400016461F46DDF830804FF000092CB94FF4A6
:10545000D37217A11CA0FAF70DFF1F48006810B304
:10546000009501960294062D15DAFFF78DFD0228AE
:1054700008D100234246694617480068FFF71CFB25
:10548000814610E000231A46694613480068FFF77A
:1054900013FB814607E000233A4669460E48006840
:1054A000FFF7ECFB8146484604B0BDE8F0870000FA
:1054B0002E2E5C4672656552544F535C74696D655F
:1054C00072732E63000000004572726F723A25738A
:1054D0002C25640D0A000000CC0000200000000014
:1054E00000000000000000000000040404040404A4
:1054F0000004000000140A0A000000000000000080
:10550000000014143F140A3F0A0A000000041E158C
:1055100005060C14150F0400000012150D0A142CBA
:105520002A1200000000040A0A1E151509360000A0
:10553000000202010000000000000000002010082E
:1055400008080808081020000002040808080808D5
:105550000804020000000004150E0E1504000000EF
:1055600000000404041F0404040000000000000004
:10557000000000000002020100000000001F000007
:105580000000000000000000000000000002000019
:1055900000100808080404020202010000000E11B5
:1055A00011111111110E000000000406040404047E
:1055B000040E000000000E1111080402011F00007B
:1055C00000000E11100C1010110E00000000080C4D
:1055D0000A0A091E0818000000001F01010F101020
:1055E000110E000000000E09010F1111110E000034
:1055F00000001F09080404040404000000000E1148
:10560000110E1111110E000000000E1111111E10CB
:10561000120E000000000000040000000004000062
:105620000000000000040000000404000020100836
:105630000402040810200000000000001F00001FEA
:1056400000000000000204081020100804020000FE
:1056500000000E11110804040004000000000E11E7
:105660001915151D011E0000000004040C0A0A1E75
:105670001233000000000F12120E1212120F00005F
:1056800000001E1101010101110E000000000F12A7
:1056900012121212120F000000001F120A0E0A024C
:1056A000121F000000001F120A0E0A02020700006B
:1056B00000001C1201013911120C0000000033120D
:1056C000121E12121233000000001F04040404040E
:1056D000041F000000003E08080808080809070029
:1056E000000037120A060A0A1237000000000702FB
:1056F00002020202223F000000001B1B1B1B1515AB
:105700001515000000003B1216161A1A1217000099
:1057100000000E1111111111110E000000000F12E6
:10572000120E02020207000000000E1111111117E3
:10573000190E180000000F12120E0A121237000084
:1057400000001E1101060810110F000000001F15B7
:1057500004040404040E000000003312121212129A
:10576000120C000000003312120A0A0C040400009C
:1057700000001515150E0A0A0A0A000000001B0A8F
:105780000A04040A0A1B000000001B0A0A0404049D
:10579000040E000000001F0908040402121F00008C
:1057A000001C04040404040404041C00000202029B
:1057B0000404080808100000000E0808080808087B
:1057C00008080E0000040A000000000000000000AD
:1057D00000000000000000000000003F0004000086
:1057E000000000000000000000000000000C121C7F
:1057F000123C000000000302020E1212120E000002
:1058000000000000001C1202021C00000000181022
:10581000101C1212123C000000000000000C121EAE
:10582000021C000000003804041E0404041E0000D2
:1058300000000000003C120C021E221C00000302AB
:10584000020E1212123700000000040000060404C9
:10585000040E000000000800000C080808080807F3
:1058600000000302023A0A0E12370000000007048B
:1058700004040404041F000000000000000F1515BC
:105880001515000000000000000F12121237000072
:1058900000000000000C1212120C000000000000BA
:1058A000000F1212120E020700000000001C12125C
:1058B000121C103800000000001B06020207000046
:1058C00000000000001E020C101E0000000000047A
:1058D000040E04040418000000000000001B121253
:1058E000123C0000000000000037120A0C04000007
:1058F000000000000015150E0A0A0000000000005C
:10590000001B0A040A1B0000000000000037120AF6
:105910000C04040300000000001E0804041E000024
:1059200000180808080408080808180008080808EB
:105930000808080808080808000604040408040405
:10594000040406000225180000000000000000000A
:105950000000000000000000000000000000000047
:1059600000000008080808080808000018180000CF
:1059700000486C241200000000000000000000003D
:105980000000002424247F1212127F121212000041
:105990000000081C2A2A0A0C1828282A2A1C080891
:1059A00000000022251515152A58545454220000D1
:1059B0000000000C1212120A76252911916E0000C7
:1059C00000060604030000000000000000000000C4
:1059D0000040201010080808080808101020400097
:1059E000000204080810101010101008080402002B
:1059F0000000000008086B1C1C6B08080000000079
:105A000000000000080808087F08080808000000D7
:105A10000000000000000000000000000606040373
:105A20000000000000000000FE0000000000000078
:105A3000000000000000000000000000060600005A
:105A400000008040402020101008080404020200DA
:105A50000000001824424242424242422418000000
:105A6000000000080E08080808080808083E0000A2
:105A70000000003C4242422020100804427E000008
:105A80000000003C4242201820404042221C0000FE
:105A9000000000203028242422227E2020780000CC
:105AA0000000007E0202021A26404042221C000032
:105AB000000000382402021A264242422418000044
:105AC0000000007E222210100808080808080000C4
:105AD0000000003C4242422418244242423C000062
