:020000040800F2
:10000000C80A002031020008F10900084909000867
:10001000ED09000837070008430F00080000000042
:10002000000000000000000000000000990100082E
:100030003B07000800000000DD0100087D0C0008FF
:100040004B0200084B0200084B0200084B0200085C
:100050004B0200084B0200084B02000895070008FD
:100060004B0200084B0200084B0200084B0200083C
:100070004B0200084B0200084B0200084B0200082C
:100080004B0200084B0200084B0200084B0200081C
:100090004B0200084B0200084B0200084B0200080C
:1000A0004B0200084B0200084B0200084B020008FC
:1000B0004B0200084B020008ED0C00084B02000840
:1000C0004B0200084B0200084B0200084B020008DC
:1000D0004B020008590D00084B0200084B020008B3
:1000E0003D0700084B0200084B02000800F002F830
:1000F00000F042F80AA090E8000C82448344AAF180
:100100000107DA4501D100F037F8AFF2090EBAE87D
:100110000F0013F0010F18BFFB1A43F0010318473B
:100120001C1B00003C1B0000103A24BF78C878C19B
:10013000FAD8520724BF30C830C144BF04680C60ED
:10014000704700000023002400250026103A28BF35
:1001500078C1FBD8520728BF30C148BF0B60704739
:10016000642900F0F180732900F0F68100207047C7
:100170001FB51FBD10B510BD00F03AFA1146FFF7CC
:10018000F7FF00F0A9FF00F058FA03B4FFF7F2FF01
:1001900003BC00F0D8FE0000224B19680868B0E8E4
:1001A000F00F80F30988BFF36F8F4FF0000080F3EA
:1001B00011884EF00D0E70470000000006480068E0
:1001C000006880F3088862B661B6BFF34F8FBFF353
:1001D0006F8F00DF00BF00BF08ED00E0EFF3098084
:1001E000BFF36F8F0F4B1A6820E9F00F106008B54E
:1001F0004FF0300080F31188BFF34F8FBFF36F8F44
:1002000001F01AFA4FF0000080F31188BDE80840B1
:1002100019680868B0E8F00F80F30988BFF36F8FA2
:10022000704700BF74000020EFF3058070470000A6
:100230000948804709480047FEE7FEE7FEE7FEE77A
:10024000FEE7FEE7FEE7FEE7FEE7FEE704480549B6
:10025000054A064B704700008D0C0008ED000008B1
:10026000C8040020C80A0020C8060020C8060020D4
:10027000704700000FB4044910B503AA029800F0BB
:100280006FF910BC5DF814FB540000202DE9F0411B
:100290000E460446002020622046E168884730B3BD
:1002A000252805D0D4E901219047206A401CF2E7B7
:1002B000E168204600278847050018D0A5F14100D5
:1002C000192802D820354FF40067324629462046C7
:1002D0002760FFF745FF40B1012804D0F61D26F046
:1002E00007060836D8E7361DD6E72846DAE7206A3B
:1002F000BDE8F08170B50C460546012A05D0287886
:10030000800600D5EA69002302E0012305E05B1CBA
:10031000934202D2E05C0028F9D1A869E618C01A1D
:10032000A861286A184428622846AFF3008004E0D8
:10033000D5E9012114F8010B9047B442F8D32846BF
:10034000AFF3008070BD00002DE9F04106460024A7
:1003500010687529314616A510D0AFF3008000282B
:1003600002DA404213A507E031688A0701D512A5D9
:1003700002E0490704D511A5012401E0AFF3008094
:1003800000210A2206F1240709E0B0FBF2FCB0FBD1
:10039000F2F302FB1C00303078541846491C002848
:1003A000F3D123462A463046BDE8F04100F051B86B
:1003B000000000002D0000002B00000020000000C5
:1003C000032A40F2308010F0030C00F0158011F881
:1003D000013BBCF1020F624498BF11F801CB00F859
:1003E000013B38BF11F8013BA2F1040298BF00F8AD
:1003F00001CB38BF00F8013B11F0030300F0C280CD
:10040000083AC0F0088051F8043B083A51F804CB90
:10041000A0E80810F5E7121D5CBF51F8043B40F856
:10042000043BAFF30080D20724BF11F8013B11F861
:1004300001CB48BF11F8012B24BF00F8013B00F8A5
:1004400001CB48BF00F8012B7047704770477047D9
:1004500070472DE9F0470D4699469246044600F153
:1004600024080168880604D5E06921F010012160A4
:1004700000E00120A84201DD471B00E00027A16940
:100480007A1902EB0900081AA0612078C00602D48C
:100490002046AFF30080002608E0D4E901211AF8D5
:1004A00006009047206A401C761C20624E45F4DB13
:1004B0002078C0060AD52046AFF3008006E0D4E9D4
:1004C000012130209047206A401C2062381EA7F18D
:1004D0000107F4DC07E0D4E9012118F80500904792
:1004E000206A401C2062281EA5F10105F3DC20468D
:1004F000AFF300802078000602D50220BDE8F08727
:100500000120FBE701694A1C02610878704700B5C9
:100510008FB0CDE901310021059105497944CDE93C
:10052000031011466846FFF7B1FE0FB000BD000092
:10053000E5FFFFFF10B5436913B1AFF3008001E0A1
:10054000FFF7D8FE012010BD127800F124010A70D7
:1005500000224A700122EDE711684FF0FF32E9E70F
:10056000074B70B50D467B44FFF7D1FF0446284684
:1005700000F03AF810B14FF0FF3070BD204670BD6A
:100580001F0B000010B5203AC0F00B80B1E81850E6
:10059000203AA0E81850B1E81850A0E81850BFF46D
:1005A000F5AF5FEA027C24BFB1E81850A0E818500C
:1005B00044BF18C918C0BDE810405FEA827C24BF60
:1005C00051F8043B40F8043B08BF7047D20728BFEE
:1005D00031F8023B48BF11F8012B28BF20F8023B3D
:1005E00048BF00F8012B7047007B00F08000704787
:1005F000754600F02BF8AE4605006946534620F0DC
:100600000700854618B020B5FFF720FEBDE8204062
:100610004FF000064FF000074FF000084FF0000BBE
:1006200021F00701AC46ACE8C009ACE8C009ACE871
:10063000C009ACE8C0098D46704710B50446AFF359
:1006400000802046BDE81040FFF79FBD004870477E
:100650006804002070B505460C4616461E488442C4
:1006600004D10121042000F007FA2EE01B48844247
:1006700004D10121082000F0FFF926E01848844247
:1006800004D10121102000F0F7F91EE01548844242
:1006900004D10121202000F0EFF916E01248844235
:1006A00004D10121402000F0E7F90EE00F48844218
:1006B00004D10121802000F0DFF906E00C488442DB
:1006C00003D10121801500F0D7F92C60AE802846B7
:1006D00000F010F870BD000000080140000C01405F
:1006E000001001400014014000180140001C0140AE
:1006F0000020014038B50446A088ADF80000102065
:100700008DF8030003208DF802006946206800F090
:1007100083F8204600F001F838BD10B50446A188E2
:10072000206800F00DF910BD10B50446A1882068BE
:1007300000F008F910BD00BFFEE7704708B50020C3
:1007400000904FF4805000F053F8D8B10A2000F028
:100750008FFC4FF480510C4800F0E9F820B969464D
:100760000A48006800F0D6FF4FF4805000F03AF8D5
:10077000009838B14FF0805005490860BFF34F8FA3
:10078000BFF36F8F08BD0000000C01401400002073
:1007900004ED00E008B500200090022000F028F8E9
:1007A000C8B10A2000F064FC02210B4800F0BFF839
:1007B00020B969460948006800F0ACFF022000F04B
:1007C00011F8009838B14FF0805005490860BFF328
:1007D0004F8FBFF36F8F08BD000C01401800002041
:1007E00004ED00E001490860704700001404014076
:1007F000014600200022074B1B6803EA0102054B5B
:1008000014331B680B4013B10AB1012000E0002033
:1008100070470000000401402DE9F0410246002528
:100820000026002000230024002791F803C00CF0CC
:100830000F0591F803C00CF0100CBCF1000F03D0B1
:1008400091F802C04CEA050591F800C0BCF1000F18
:1008500031D0146800202BE04FF0010C0CFA00F3AB
:10086000B1F800C00CEA03069E4220D183004FF08D
:100870000F0C0CFA03F7BC4305FA03FC4CEA040422
:1008800091F803C0BCF1280F06D14FF0010C0CFA0F
:1008900000FCC2F814C00AE091F803C0BCF1480F94
:1008A00005D14FF0010C0CFA00FCC2F810C0401C3E
:1008B0000828D1D31460B1F800C0BCF1FF0F34DDBB
:1008C000546800202EE000F1080C4FF0010808FAEF
:1008D0000CF3B1F800C00CEA03069E4221D183005C
:1008E0004FF00F0C0CFA03F7BC4305FA03FC4CEA7B
:1008F000040491F803C0BCF1280F05D100F1080CE5
:1009000008FA0CF8C2F8148091F803C0BCF1480F43
:1009100007D100F1080C4FF0010808FA0CF8C2F8F2
:100920001080401C0828CED35460BDE8F0810246F8
:10093000002093680B400BB1012000E000207047BD
:10094000416170470161704700BFFEE770B5054621
:100950000C4616461E48844204D10121042000F0B2
:100960008BF82EE01B48844204D10121082000F0BE
:1009700083F826E01848844204D10121102000F0B9
:100980007BF81EE01548844204D10121202000F0AC
:1009900073F816E01248844204D10121402000F08F
:1009A0006BF80EE00F48844204D10121802000F052
:1009B00063F806E00C48844203D10121801500F061
:1009C0005BF82C60AE80284600F06CFB70BD000028
:1009D00000080140000C01400010014000140140DB
:1009E00000180140001C01400020014000BFFEE74C
:1009F0007047000070B5002100230F22C47804B3B3
:100A0000154C246804F4E064C4F5E064210AC1F1E3
:100A10000403CA40447804FA03F184781440214363
:100A200009010E4C0678A155047804F01F05012435
:100A3000AC4005786D11AD0005F1E025C5F8004129
:100A400009E0047804F01F050124AC40044D067849
:100A5000761145F8264070BD0CED00E000E400E0A2
:100A600080E100E002490143024A11607047000042
:100A70000000FA050CED00E029B1064A9269024334
:100A8000044B9A6104E0034A92698243014B9A61E4
:100A9000704700000010024030B500210022002401
:100AA00000232D4D6D6805F00C0121B1042905D0FE
:100AB000082923D105E0294D056022E0274D056076
:100AC0001FE0254D6D6805F47012234D6D6805F427
:100AD0008034022505EB92421CB9214D5543056037
:100AE0000BE01D4D6D6805F400351DB11C4D5543DF
:100AF000056002E0194D5543056002E0174D0560A1
:100B000000BF00BF144D6D6805F0F0010909154DD7
:100B10006B5C0568DD4045600F4D6D6805F4E06174
:100B2000090A104D6B5C4568DD4085600A4D6D68B3
:100B300005F46051C90A0B4D6B5C4568DD40C5602A
:100B4000054D6D6805F44041890B074D6B5CC56828
:100B5000B5FBF3F5056130BD0010024000127A00CC
:100B600000093D005E0000206E00002010B500F07E
:100B700001F810BD0CB500200190009033480068CA
:100B800040F480303149086000BF3048006800F40C
:100B9000003000900198401C0190009818B901980D
:100BA000B0F5A06FF1D12948006800F4003010B111
:100BB0000120009001E0002000900098012843D11E
:100BC0002348006840F0100021490860084600688A
:100BD00020F0030008600846006840F0020008604A
:100BE0001A48406819494860084640684860084605
:100BF000406840F4806048600846406820F47C10FB
:100C000048600846406840F4E810486008460068BC
:100C100040F08070086000BF0C48006800F0007071
:100C20000028F9D00948406820F0030007494860CF
:100C30000846406840F00200486000BF0348406832
:100C400000F00C000828F9D10CBD00000010024093
:100C500000200240042808D14FF0E021096941F04A
:100C600004014FF0E022116107E04FF0E021096933
:100C700021F004014FF0E0221161704710B500F03F
:100C8000C7FD012801D000F02BFD10BD10B51348A1
:100C9000006840F0010011490860084640681049AA
:100CA00008400E494860084600680E4908400B4954
:100CB00008600846006820F4802008600846406804
:100CC00020F4FE0048604FF41F008860FFF74EFFDD
:100CD0004FF000600449086010BD000000100240A1
:100CE0000000FFF8FFFFF6FE08ED00E008B5002069
:100CF000009001210B4800F01EF890B10121094835
:100D000000F016F869460848006800F003FD0098F6
:100D100038B14FF0805005490860BFF34F8FBFF3E3
:100D20006F8F08BD000800401C00002004ED00E0AB
:100D3000CA430282704730B50246002000230024D7
:100D4000158A05EA0103958905EA010413B10CB17E
:100D5000012000E0002030BD10B540F225511D48B3
:100D600000F053F810B31B4800F0E6F8C4B21A487C
:100D7000008800F40040C8B91748008800F480409B
:100D800060B10A2C03D000201349088020E01248EB
:100D9000008840F400401049088019E00D2C06D16D
:100DA0000D48008840F480400B49088010E00A4854
:100DB0000088C0F30D0009490C5407480088401C06
:100DC0000549088008460088C72801DD0020088002
:100DD00010BD00000038014058000020BC00002079
:100DE00021B1828942F40052828104E082894DF669
:100DF000FF731A40828170471AB1838A0B43838242
:100E000002E0838A8B438382704770B502460024D8
:100E100000230025002040F66A16B14200D100BF31
:100E2000C1F3421501F01F03012606FA03F3012D59
:100E300002D19689334006E0022D02D1168A334052
:100E400001E0968A33400C12012606FA04F4168853
:100E5000344013B10CB1012000E0002070BD00004F
:100E60002DE9F04786B005460E460024A24600BF95
:100E7000A1460027B08900B100BF2F462C8A4CF64E
:100E8000FF700440F08804432C82AC894EF6F310C6
:100E90000440B08831890843718908430443AC8118
:100EA000AC8A4FF6FF400440B0890443AC8201A8ED
:100EB000FFF7F2FD1F48874202D1DDF810A001E0E4
:100EC000DDF80CA0A88900F4004040B10AEBCA008C
:100ED00000EB0A1031684900B0FBF1F807E00AEBBB
:100EE000CA0000EB0A1031688900B0FBF1F86420F9
:100EF000B8FBF0F004012009642101FB1089A889E6
:100F000000F4004040B1322000EBC900B0FBF1F02A
:100F100000F00700044308E0322000EB09106421D0
:100F2000B0FBF1F000F00F0004432C8106B0BDE8E7
:100F3000F08700000038014001468888C0F30800AF
:100F4000704700BFFEE700BF7047000070B5054660
:100F500005B970BD002412E00B48FFF7E5FB4FF424
:100F6000167000F041F80848FFF7D7FB681EA04252
:100F700003D04FF4167000F037F8601CC4B2AC42D6
:100F8000EADB00BFE5E700002800002010B50420E0
:100F9000FFF760FE104800681049B0FBF1F01049FF
:100FA00008700D4800680D49B0FBF1F44FF47A70F9
:100FB000444301200B4908804FF0E020006940F0D5
:100FC00002004FF0E021086108464461006940F0EA
:100FD0000100086110BD00004000002040420F00E9
:100FE0005A0000205C00002070B5044600F010FCA0
:100FF000012810D00B480088844206D30948008895
:10100000B4FBF0F5284600F0D5FA06480088B4FB9A
:10101000F0F100FB11444FF47A7104FB01F000F091
:1010200003F870BD5C00002070B5034600224FF04D
:10103000E02675690D4E367803FB06F44FF0E02686
:10104000B16910E04FF0E026B06988420BD08842C9
:1010500002D20E1A324402E02E1A0E4432440146E5
:10106000A24200D300E0EDE700BF70BD5A000020AF
:1010700030B50446002504E04FF47A70FFF7D4FF42
:101080006D1CA542F8D330BD00BF054A128802F09E
:101090004002002AF9D0C2B2014B1B1D1A807047D2
:1010A0000038014038B50446A088ADF80000102093
:1010B0008DF8030003208DF8020069462068FFF7D1
:1010C000ABFB204600F001F838BD10B50446A188FE
:1010D0002068FFF737FC10BD4FF44070FFF7C2FCEB
:1010E000FFF754FF4FF4E13000F00EF94FF40052D7
:1010F00007490848FFF72AFC4FF400420649074811
:10110000FFF7A8FA02E00820FFF720FFFBE7000046
:101110000010014020000020000C014028000020A9
:101120002DE9F04105460E461C4807681C4800683A
:10113000001D00F039F950B91948006890F82C10DA
:101140000120884017490968814316480160681CDE
:1011500038B936B112480168091D134800F052F938
:101160001AE07C190E4800684460BC4207D20C4863
:101170000168091D0D48006800F02AF90CE00848D4
:101180000168091D0A48006800F022F90948006852
:10119000844201D207480460BDE8F0818800002045
:1011A000740000208C000020540400207C000020EB
:1011B00078000020A40000202DE9F04104460F46ED
:1011C00015464FF00008A66B206C40B9206860BB44
:1011D000606800F0DDFB80460020606025E07DB99E
:1011E0003946226CA068FFF7EBF8216CA068084430
:1011F000A060D4E90110884217D32068A06014E0F1
:101200003946226CE068FFF7DBF8216CE068401A91
:10121000E0602168E068884203D2216C6068401A6F
:10122000E060022D01D106B1761E701CA06340461D
:10123000BDE8F0812DE9F3410D460098846C00274C
:101240002CB940F6CE121AA11EA0FFF713F8A06B1E
:10125000E16B884201D2012000E0002028B940F66D
:10126000CF1213A117A0FFF705F8A06BE16B88421E
:101270001BD294F945602A4669462046FFF79CFF39
:101280000746701C60B9606A08B9012000E00020C0
:1012900050B904F1240000F0E7FB28B1012703E076
:1012A000701C40B284F8450000BF3846BDE8FC81A0
:1012B0002E2E5C4672656552544F535C7175657590
:1012C000652E63004572726F723A25732C25640D8A
:1012D0000A0000000A490968096809B9012100E00B
:1012E000002121B14FF0FF31064A116006E00449A8
:1012F0000968C968C868034A4168116070470000FE
:1013000078000020A400002010B586B0044601211A
:1013100044F20400FFF7B0FB4FF40070ADF8140086
:1013200003208DF8160018208DF8170005A91C4819
:10133000FFF772FA4FF48060ADF8140004208DF8C6
:10134000170005A91648FFF767FA25208DF8000059
:1013500003208DF801008DF8020001208DF80300B4
:101360006846FFF747FB01940020ADF80800ADF890
:101370000A00ADF80C00ADF810000C20ADF80E001E
:1013800001A90848FFF76CFD012240210548FFF73D
:1013900033FD01210348FFF723FD06B010BD000017
:1013A000000801400038014001460A69D1E90130D6
:1013B0009860D1E9010358605068884201D188687B
:1013C0005060002008611068401E1060106870476F
:1013D00010B502460B685C1C0CB9106907E002F1FD
:1013E000080000E04068446824689C42FAD94468D8
:1013F0004C604C68A160886041600A611468641C9C
:10140000146010BD42684A6093688B6093685960AD
:101410009160086103685B1C0360704710B500BFF2
:10142000302080F31188BFF34F8FBFF36F8F00BF61
:101430000B480068401C0A490860084600680128FB
:101440000DD108480068C0B208B9012000E00020B2
:1014500028B94FF4BD7204A10EA0FEF70BFF10BD1A
:10146000B000002004ED00E02E2E5C46726565524F
:10147000544F535C706F727461626C655C52564479
:10148000535C41524D5F434D335C706F72742E63F9
:10149000000000004572726F723A25732C25640DAE
:1014A0000A00000010B50B48006828B940F281120C
:1014B00009A114A0FEF7DEFE06480068401E05499B
:1014C00008600846006820B9002080F3118800BF3A
:1014D00000BF10BDB00000202E2E5C467265655224
:1014E000544F535C706F727461626C655C52564409
:1014F000535C41524D5F434D335C706F72742E6389
:10150000000000004572726F723A25732C25640D3D
:101510000A00000070B5FEF787FE0546102D11D3B6
:1015200005F1E02090F8F04310480078844201DB98
:10153000012000E0002028B940F2AA220CA117A047
:10154000FEF798FE1948006800F4E0601849096841
:10155000884201D8012000E0002028B940F2BA22D8
:1015600003A10EA0FEF786FE70BD0000B4000020AF
:101570002E2E5C4672656552544F535C706F7274C8
:1015800061626C655C525644535C41524D5F434D01
:10159000335C706F72742E63000000004572726FCE
:1015A000723A25732C25640D0A0000000CED00E052
:1015B000B800002070B504460025ACB10F480068A3
:1015C00008B9012000E0002028B940F2CF420CA168
:1015D00010A0FEF74FFE00F027F800212046FFF78D
:1015E0009FFD00F09BFA05463DB94FF080500D4934
:1015F0000860BFF34F8FBFF36F8F70BDAC0000204A
:101600002E2E5C4672656552544F535C7461736B49
:10161000732E63004572726F723A25732C25640D28
:101620000A00000004ED00E002480068401C014987
:1016300008607047AC00002010B51B48006818B166
:1016400001201A4908602DE0002018490860184858
:101650000068B0FA80F0C0F11F0404EB8400154963
:1016600051F8200008B1012000E0002028B940F620
:10167000F92211A115A0FEF7FDFD04EB84010D4A2E
:1016800002EB810041684968416000F1080142684D
:101690008A4202D14168496841604168C9680F4A7D
:1016A000116000BF10BD0000AC00002098000020B9
:1016B0008C000020840100202E2E5C46726565524D
:1016C000544F535C7461736B732E63004572726F79
:1016D000723A25732C25640D0A0000007400002066
:1016E00010B500BF302080F31188BFF34F8FBFF3D8
:1016F0006F8F00BF00F09CF818B14FF08050044984
:10170000086000BF002080F3118800BF10BD0000FA
:1017100004ED00E02DE9F04707460D463C462CB9A4
:1017200040F23C4231A136A0FEF7A4FD206C08B97E
:10173000012000E0002028B94FF488622BA130A0DE
:10174000FEF798FD206808B9606808B9012000E03C
:10175000002028B940F2454224A129A0FEF78AFDC5
:10176000FFF7D8FE00BF3021EFF3118081F311881D
:10177000BFF34F8FBFF36F8F00BF0646D4F838908A
:10178000E06B484529D994F945A009F10100A0630F
:101790000AF10100C8B9A06C40B100212046FFF752
:1017A00049FDB8B1B5B10120286013E0606A08B9FD
:1017B000012000E0002068B904F1240000F054F991
:1017C00040B13DB10120286004E00AF1010040B2BF
:1017D00084F845004FF0010801E04FF0000800BF19
:1017E00086F3118800BF4046BDE8F0872E2E5C4688
:1017F00072656552544F535C71756575652E630053
:101800004572726F723A25732C25640D0A00000030
:101810000549096809B9012005E00449096809B9C1
:10182000022000E00020704790000020AC00002063
:101830002DE9F0414FF0000841480068002872D1BE
:1018400040480068451C3F480560EDB93E480068C7
:10185000006808B9012000E0002028B940F6DC1239
:101860003AA13FA0FEF706FD3748076840480068E8
:10187000354908603E4807603E480068401C3D49C5
:101880000860FFF727FD00BF3B48006885423CD356
:1018900000BF2D480068006808B9012000E0002062
:1018A00020B14FF0FF30344908602DE02648006831
:1018B000C068C4686668B54202D22F48066023E05B
:1018C000201DFFF771FDA06A18B104F11800FFF7A1
:1018D0006BFD94F82C1001208840284909680843C2
:1018E00026490860E16A01EB8101254A02EB81008B
:1018F000211DFFF787FD2349E06A0968C96A88420C
:10190000C7D34FF00108C4E700BF1E480068C06A93
:1019100000EB80001A4951F82000012801D94FF04E
:10192000010805E0FFE718480068401C16490860F8
:101930001648006808B14FF001084046BDE8F08144
:10194000AC00002088000020780000202E2E5C468D
:1019500072656552544F535C7461736B732E6300F0
:101960004572726F723A25732C25640D0A000000CF
:101970007C0000209C000020A40000208C0000209F
:1019800084010020740000209400002098000020B2
:1019900070B505462C460026002D4BD02648006821
:1019A000844201D1012000E0002028B940F6CA623B
:1019B00022A127A0FEF75EFC206D28B940F6CC627C
:1019C0001EA123A0FEF756FC206D401E2065E16C91
:1019D000E06A88422ED0206D60BB201DFFF7E4FC3A
:1019E00078B9E06A00EB80001D4951F8200040B949
:1019F00094F82C10012088401A490968814319483D
:101A00000160E06CE062E06AC0F12000A06194F83F
:101A10002C100120884013490968084311490860C7
:101A2000E16A01EB81010E4A02EB8100211DFFF703
:101A3000E9FC0126304670BD740000202E2E5C4665
:101A400072656552544F535C7461736B732E6300FF
:101A50004572726F723A25732C25640D0A000000DE
:101A6000840100208C00002070B50646F068C46830
:101A70002CB940F664321AA11EA0FEF7FBFB04F15C
:101A80001800FFF791FC1F480068A8B9201DFFF758
:101A90008BFC94F82C10012088401B4909680843EE
:101AA00019490860E16A01EB8101184A02EB8100E3
:101AB000211DFFF7A7FC04E004F118011448FFF70B
:101AC000A1FC1449E06A0968C96A884204D9012561
:101AD00001201149086000E00025284670BD000083
:101AE0002E2E5C4672656552544F535C7461736B65
:101AF000732E63004572726F723A25732C25640D44
:101B00000A000000AC0000208C00002084010020AE
:101B10002C040020740000209800002070B50024E0
:101B200000263448006828B94FF4FD6232A137A07E
:101B3000FEF7A0FBFFF772FC2E480068401E2D49FF
:101B400008600846006800284FD134480068002823
:101B50004BD024E03248C068C46804F11800FFF795
:101B600023FC201DFFF720FC94F82C100120884056
:101B70002C49096808432B490860E16A01EB81019F
:101B8000294A02EB8100211DFFF73CFC2749E06A4E
:101B90000968C96A884202D30120254908602048A3
:101BA000006808B9012000E000200028D2D00CB164
:101BB000FFF790FB1F48056865B100BFFFF738FECF
:101BC00010B101201A4908606D1E002DF6D10020C9
:101BD000184908601648006838B1012630071649D0
:101BE0000860BFF34F8FBFF36F8FFFF75BFC30468A
:101BF00070BD0000AC0000202E2E5C467265655260
:101C0000544F535C7461736B732E63004572726F33
:101C1000723A25732C25640D0A0000008400002010
:101C20002C0400208C00002084010020740000207F
:101C3000980000209400002004ED00E05C1C0008E7
:101C400000000020BC00000028010008181D00084A
:101C5000BC0000200C0A0000440100080000000045
:101C60000000000000000000000000000000000074
:101C70000000000000000000000000000000000064
:101C80000000000000000000000000000000000054
:101C900000000000000000000000000000A24A0454
:101CA000000000000000000001020304060708090C
:101CB0000000000000000000000000000000010221
:101CC00003040102030406070809020406080000D1
:101CD0000000000000000000000000000000000004
:101CE00000000000000000000000000000000000F4
:101CF00000000000000000000000000000000000E4
:101D0000000000000000000000000000AAAAAAAA2B
:081D10000000000000000000CB
:04000005080000ED02
:00000001FF
